:020000022000DC
:106000000000012019620200016202000362020026
:10601000056202000762020009620200000000003F
:106020000000000000000000000000000B62020001
:106030000D620200000000000F6202001162020007
:1060400085BA020013620200E9C70200136202006F
:106050001362020013620200E5C60200136202002E
:106060001362020013620200136202001362020054
:106070001362020013620200136202001362020044
:1060800013620200B90003001362020013620200EF
:10609000136202001362020039330300136202002C
:1060A0001362020013620200136202001362020014
:1060B00013620200136202000000000000000000F2
:1060C00013620200136202001362020013620200F4
:1060D000136202001362020013620200000000005B
:1060E00000000000000000000000000000000000B0
:1060F00000000000000000000000000000000000A0
:10610000000000000000000000000000000000008F
:10611000000000000000000000000000000000007F
:10612000000000000000000000000000000000006F
:10613000000000000000000000000000000000005F
:10614000000000000000000000000000000000004F
:10615000000000000000000000000000000000003F
:10616000000000000000000000000000000000002F
:10617000000000000000000000000000000000001F
:10618000000000000000000000000000000000000F
:1061900000000000000000000000000000000000FF
:1061A00000000000000000000000000000000000EF
:1061B00000000000000000000000000000000000DF
:1061C00000000000000000000000000000000000CF
:1061D00000000000000000000000000000000000BF
:1061E00000000000000000000000000000000000AF
:1061F000000000000000000000000000000000009F
:10620000FEE7FEE7FEE7FEE7FEE7FEE7FEE7FEE766
:10621000FEE7FEE700F002B8FFF7FCBF0F484FF0C3
:106220000701884385460E4880470E48016841F4BF
:1062300070010160BFF34F8FBFF36F8F00F01AB88A
:1062400009480A490A4A884207D0521A05D00378F9
:1062500001300B700131013AF9D170470000012083
:10626000D586020088ED00E01C450300282A0020A6
:10627000282A00203A493B480A1A02D007229143B3
:106280008D46394939480A1A06D00722914381F3CD
:106290000988022282F3148835483649364A00F0CC
:1062A00041F836483649374A00F03CF83648374915
:1062B000374A00F037F837483749384A00F032F8A3
:1062C00037483849384A00F02DF838483849394AB3
:1062D00000F028F838483949394A00F023F839489D
:1062E0003949002200F036F838483949002200F0D8
:1062F00031F838483849091A0DF006FF374A9047F7
:1063000025482649884205D00268043003B49047E6
:1063100003BCF7E700208646EC4600200021304A07
:106320009047FEE7884214D0521A12D003460B431E
:1063300013430324234206D1036804300B60043165
:10634000043AF9D17047037801300B700131013AFA
:10635000F9D17047884202D002700130FAE77047E5
:106360000000012000E000200000012000000120CA
:10637000FC640300282A002020310020E46302008E
:10638000E4630200DA430300FC640300282A0020CF
:10639000282A00201C4503001C4503001C4503005F
:1063A0001C4503001C4503001C4503001C4503005D
:1063B0001C450300F9640300F46B03002031002046
:1063C0002031002020310020E4400020E440002063
:1063D000E4400020E4400020E4600020416202002C
:0463E0008D6F0200BB
:1063E40075DF704700BF184676DF704700BF184658
:1063F4007FDF704700BF18468FDF704700BF184625
:1064040000B583B003460091ADF80630BDF8063000
:10641400009A1946034808F007FA00BF03B05DF874
:1064240004FB00BFEFBEADDE00B583B00190044AAB
:106434007621019808F0F8F900BF03B05DF804FB79
:106444003445030000B585B00F4804F0A1FC039067
:10645400039B0293029B002B04D00C4A80210298D8
:1064640008F0E2F9012001F015FC0390039B01936D
:10647400019B002B04D0054A8321019808F0D4F92C
:1064840000BF05B05DF804FB4C3100203445030027
:1064940070B58AB00590059B1B78062B13D0062B8C
:1064A40044DC042B34D0052B40D1059B5B68089356
:1064B400089B0793079B002B3AD01F4A9221079809
:1064C40008F0B2F934E0059B5B6809931B4A1C4B46
:1064D400D31ADB081B0443F00300099B5B781D46B9
:1064E400099B9B781E46099BDB781A46099B1B79FE
:1064F4001946099B5B791C46099B9B79039302947B
:106504000191009233462A460E490BF090FF10E0A9
:106514000A4A0B4BD31ADB081B0443F003030A4952
:1065240018460BF021FFFFF78DFF02E000BF00E0EB
:1065340000BF00BF0AB070BD34450300104403001F
:10654400E84303008C450300BC45030000B589B053
:106554006B461022002118460DF096FE01238DF89B
:10656400043001238DF80C306B461A4A19461A4838
:1065740004F0B6FB0790079B0693069B002B04D000
:10658400164ABD21069808F04FF9154A032112480E
:1065940004F01EFA0790079B0593059B002B04D07B
:1065A4000E4AC021059808F03FF9002204210A4848
:1065B40004F030FA0790079B0493049B002B04D04B
:1065C400064AC321049808F02FF900BF09B05DF80A
:1065D40004FB00BF956402004C31002034450300E5
:1065E4003045030000B583B001900199034804F0DD
:1065F40083FC00BF03B05DF804FB00BF2031002022
:1066040000B587B001900B46ADF802300023059326
:1066140029E0019A059B13441B78184609F07AF87F
:106624000490049B002B18D0049B112B15D02E4AE8
:106634002E4BD31ADB081B0443F00103059A2C49A3
:1066440018460BF09FFE049B0293029B002B04D080
:10665400284AE921029808F0E7F8049B112BD8D0C6
:10666400059B01330593BDF80230059A9A42D0D3B5
:10667400BDF80230013B019A13441B780D2B06D15F
:1066840000BF0A2009F046F80346112BF9D0BDF8E3
:1066940002301A460199184804F0B8FD0490049B8E
:1066A400002B18D0049B112B15D00F4A0F4BD31A73
:1066B400DB081B0443F00103049A104918460BF04D
:1066C40061FE049B0393039B002B04D0094AFA2127
:1066D400039808F0A9F8049B112BD8D000BF00BF81
:1066E40007B05DF804FB00BF10440300E843030057
:1066F400CC4503003445030020310020F445030059
:1067040000B585B00190019B1B78022B48D0022B69
:106714006EDC002B02D0012B56D069E0384B1B886D
:106724001A46384B1344184608F0BAFF344B1B88FA
:1067340001339AB2324B1A80314B1B88013B314AE8
:10674400D35C0A2B0CD12E4B1B88013B2D4AD35C06
:106754000D2B05D12A4B1A882B4B1B889A4249D3FF
:10676400274B1B881A462749284804F04FFD0390FD
:10677400039B082B0DD0039B132B0AD0039B02937E
:10678400029B002B05D0224A4FF49071029808F026
:106794004BF8039B132BE3D0194B00221A8029E0FA
:1067A4001C4A1D4BD31ADB081B0443F001031B498D
:1067B40018460BF0D9FD019B5B68154A40F22B117A
:1067C400184608F031F816E0124A134BD31ADB08C6
:1067D4001B0443F00103124918460BF0C5FD019B4D
:1067E4005B680B4A4FF49871184608F01DF802E0F4
:1067F40000BF00E000BF00BF05B05DF804FB00BFB0
:10680400283300202C3300201030002020310020B9
:106814003445030010440300E8430300204603000A
:106824005446030000B587B001900091009B1B788B
:10683400022B49D0022B55DC002B02D0012B3AD07D
:1068440050E02A4A2A4BD31ADB081B0443F0030303
:10685400284918460BF088FD009B5988009B0E338D
:106864001A46019804F03AFD0590059B0493049B95
:10687400002B05D0204A40F24B11049807F0D4FFB6
:10688400019804F0A5FC0590059B0393039B002B42
:1068940005D0194A4FF4A771039807F0C5FF134AAE
:1068A400134BD31ADB081B0443F0030313491846A4
:1068B4000BF05AFD16E0009B9A68009B9B891946D1
:1068C4001046FFF79DFE0DE0084A094BD31ADB087A
:1068D4001B0443F003030A4918460BF045FDFFF778
:1068E400B1FD00BF00BF07B05DF804FB1044030016
:1068F400E843030080460300344503009446030044
:10690400C446030000B587B003468DF80730002065
:1069140001F0C0F90590059B0493049B002B05D05E
:10692400104A40F26911049807F07EFF9DF8073081
:10693400002B0ED101F037FB0590059B0393039BBD
:10694400002B08D0074A4FF4B871039807F06CFF86
:1069540001E000BF00E000BF0123184607B05DF866
:1069640004FB00BF3445030000B58FB001900091D3
:10697400019B04330B93019B1B883B2B62DC102B84
:10698400C0F21381103B2B2B00F20F8101A252F8AD
:1069940023F000BF516A0200BD6A0200AF6B02001F
:1069A400DD6A0200AF6B0200AF6B0200AF6B020046
:1069B400AF6B0200AF6B0200AF6B0200AF6B020063
:1069C400AF6B0200AF6B0200AF6B0200AF6B020053
:1069D400056B0200AF6B02002F6B0200AF6B02006D
:1069E400AF6B0200AF6B0200AF6B0200AF6B020033
:1069F400AF6B0200AF6B0200AF6B0200AF6B020023
:106A0400AF6B0200AF6B0200AF6B0200AF6B020012
:106A1400AF6B0200AF6B0200AF6B0200AF6B020002
:106A2400AF6B0200AF6B0200AF6B0200AF6B0200F2
:106A3400AF6B0200AF6B0200AF6B0200AF6B0200E2
:106A4400636B0200562B00F09D80AEE0019B9B8897
:106A5400002219465D4804F041FC0D900D9B0693FD
:106A6400069B002B05D05A4A40F28B11069807F07A
:106A7400DBFE072001F00EF90D900D9B0593059B9D
:106A8400002B05D0524A4FF4C771059807F0CCFE8D
:106A9400019B9B8819464F4802F0F8FE0D900D9B10
:106AA4000493049B002B00F08280494A4FF4C9717F
:106AB400049807F0B9FE7AE0474A484BD31ADB083A
:106AC4001B0443F003000B9B1B881A460B9B1B798A
:106AD40043490BF068FC75E0019B98880023002271
:106AE4008521FFF785FC0D900D9B0793079B002BD9
:106AF4005FD0374A40F2A511079807F095FE58E099
:106B04000B9B1A880B9B043319461046FFF768FC4D
:106B14000D900D9B0893089B002B4CD02C4A4FF4EE
:106B2400D671089807F080FE45E000238DF80C30FC
:106B340000238DF80D30019B9B8803AA114618464B
:106B4400FFF75AFC0D900D9B0993099B002B34D041
:106B54001F4A4FF4DC71099807F066FE2DE0019B93
:106B64009B8813211846FFF73FFC0D900D9B0A9359
:106B74000A9B002B23D0164A4FF4E0710A9807F0C1
:106B840053FE1CE0019B9B8813211846FFF72CFC45
:106B94000D900D9B0C930C9B002B12D00C4A4FF4C0
:106BA400E4710C9807F040FE0BE000BF0AE000BF60
:106BB40008E000BF06E000BF04E000BF02E000BF41
:106BC40000E000BF00BF0FB05DF804FB20310020DF
:106BD40034450300282A002010440300E84303003E
:106BE400D446030000B587B00CF022FB0590059B4A
:106BF4000493049B002B05D0164A4FF4ED710498BE
:106C040007F012FE0023019301AB194601200CF09A
:106C1400C7FB0590059B0393039B002B05D00D4AEE
:106C24004FF4F071039807F0FFFD01AB18460CF028
:106C3400D5FC0590059B0293029B002B05D0054AC9
:106C44004FF4F271029807F0EFFD00BF07B05DF852
:106C540004FB00BF3445030000B583B001900091EC
:106C6400009B1B8840F6772293421FD1114A124B96
:106C7400D31ADB081B0443F00303104918460BF036
:106C840073FB009B9B88033B9AB20D4B1A80094A05
:106C9400094BD31ADB081B0443F00300084B1B8881
:106CA4001A46074B1B8807490BF07DFB00BF03B056
:106CB4005DF804FB10440300E843030004470300A9
:106CC400103000202047030000B585B01149124858
:106CD40003F08AF80390039B0293029B002B05D0D8
:106CE4000E4A4FF4FF71029807F09EFDF7210A48FF
:106CF40003F0A5F80390039B0193019B002B05D09F
:106D0400064A40F20121019807F08EFD00BF05B04C
:106D14005DF804FB5D6C020038310020344503004B
:106D240000B585B003468DF807309DF80730042B75
:106D340005D00A2B19D100200AF028FB18E00E4BCD
:106D44005B8813211846FFF74FFB0390039B082B26
:106D54000DD0039B0293029B002B08D0074A4FF4EB
:106D64000671029807F060FD01E000BF00E000BF7B
:106D740000BF05B05DF804FB20310020344503005A
:106D840030B58DB0134B04AC1D460FCD0FC495E840
:106D9400030084E80300104B00934FF480730193C5
:106DA4000E4B02934FF480730393694604A80723A0
:106DB4000B4A08F0E5FB0B900B9B0A930A9B002BF4
:106DC40005D0084A4FF40E710A9807F02DFD00BF54
:106DD4000DB030BD4847030020340020203500208A
:106DE400056702003445030000B587B00D4B0193DD
:106DF4000D4B02930D4B039301AB19460C4804F061
:106E04000FF90590059B0493049B002B05D0094AB8
:106E140040F24621049807F007FD00BF07B05DF873
:106E240004FB00BF296802002D640200FC2F00202F
:106E3400203100203445030000B585B012490120FB
:106E440000F042FF0390039B0293029B002B05D0AA
:106E54000E4A40F25121029807F0E6FC0DF10303BB
:106E64001946002001F002F90390039B0193019B52
:106E7400002B05D0054A4FF41571019807F0D4FC96
:106E840000BF05B05DF804FB256D02003445030026
:106E940000B583B008F022F90190019B0093009B98
:106EA400002B05D0044A4FF41771009807F0BCFC7E
:106EB40000BF03B05DF804FB3445030000B583B0A4
:106EC4004FF4804100200AF079FF0190019B009368
:106ED400009B002B05D0064A4FF41971009807F067
:106EE400A3FC0AF001FF00BF03B05DF804FB00BF80
:106EF4003445030000B583B00AF0C4F90190019B46
:106F04000093009B002B05D0044A4FF41C71009899
:106F140007F08AFC00BF03B05DF804FB34450300AE
:106F240000B585B06B460822002118460DF0ACF977
:106F34000B4B00930B4B01936B46184602F0E2FB9C
:106F44000390039B0293029B002B05D0064A40F258
:106F54007F21029807F068FC00BF05B05DF804FBD0
:106F6400E9650200FC2F00203445030008B50BF04E
:106F740089FA034683F00103DBB2002B01D00AF047
:106F840097F900BF08BD000000B583B001200DF0E3
:106F9400DBF803460193019914480CF0B9FDFFF79F
:106FA4008DFFFFF775FFFFF7EBFEFFF745FFFFF7D8
:106FB400B7FFFFF79FFFFFF715FEFFF785FEFFF70B
:106FC40013FFFFF7C3FA0A480CF02AFC094A0A4BDC
:106FD400D31ADB081B0443F00303084918460BF0DB
:106FE400C3F9FFF72FFAFFF7C1FFFCE7604703007F
:106FF4006447030010440300E84303008847030088
:1070040000B583B00190019B1B68184600F011F98C
:107014000346002B04D105494FF4F670FFF7F0F94D
:107024004FF0A043184603B05DF804FBAC470300DF
:1070340000B585B00190084611461A4603468DF8FE
:1070440003300B468DF8023013468DF8013001AB46
:107054001846FFF7D5FF03909DF803209DF80230F2
:107064005B001A439DF801309B001A439DF81830C9
:107074001B0242EA03019DF81C301B04019A1943C8
:10708400039B02F5E07243F8221000BF05B05DF8DF
:1070940004FB00B585B00390002301930023009303
:1070A4000023012201210398FFF7C2FF00BF05B0AE
:1070B4005DF804FB00B585B003900B468DF80B30EA
:1070C4009DF80B3000220192002200920022002140
:1070D4000398FFF7ADFF00BF05B05DF804FB00B5F2
:1070E40085B0019001AB1846FFF78AFF0390019B1E
:1070F400012202FA03F31946039800F086F800BF50
:1071040005B05DF804FB00B585B0019001AB1846ED
:10711400FFF776FF0390019B012202FA03F319465D
:10712400039800F07CF800BF05B05DF804FB00B5DF
:1071340085B0019001AB1846FFF762FF0390039BF3
:10714400D3F804350293029BDA43019B012101FA2F
:1071540003F31A40039BC3F80825019B01229A40BC
:10716400029B1A40039BC3F80C2500BF05B05DF8D1
:1071740004FB00B583B001900091009B002B03D168
:107184000198FFF7C0FF02E00198FFF7A8FF00BFD6
:1071940003B05DF804FB00B585B0019001AB18465F
:1071A400FFF72EFF0390039800F01FF80246019B9F
:1071B40022FA03F303F00103184605B05DF804FB5B
:1071C40000B585B0019001AB1846FFF719FF039095
:1071D400039800F012F80246019B22FA03F303F02D
:1071E4000103184605B05DF804FB82B00190019BD1
:1071F400D3F81035184602B0704782B00190019B55
:10720400D3F80435184602B0704782B0019000915B
:10721400019B009AC3F8082500BF02B0704782B0F2
:1072240001900091019B009AC3F80C2500BF02B0A5
:10723400704784B00190019B5B0902930023039380
:10724400029B002B03D14FF0FF33039300BF019B3C
:1072540003F01F030193039A019B22FA03F303F043
:107264000103002B14BF01230023DBB2184604B032
:107274007047000000B585B00190019B032B03D932
:1072840011493A20FFF7BCF8104A019B13441B78BC
:107294001846FFF795FF0346002B14BF0123002374
:1072A4008DF80F309DF80F30002B14BF01230023FD
:1072B400DBB283F00103DBB203F00103DBB2184657
:1072C40005B05DF804FB00BFDC470300244803005D
:1072D40000B583B00190019B032B03D907494120DA
:1072E400FFF78EF8064A019B13441B7800211846C9
:1072F400FFF73FFF00BF03B05DF804FBDC4703006A
:107304002448030000B583B00190019B032B03D9EB
:1073140007494720FFF774F8064A019B13441B787A
:1073240001211846FFF725FF00BF03B05DF804FBF9
:10733400DC4703002448030000B583B00023019315
:1073440005E00198FFF7DEFF019B01330193019BE8
:10735400032BF6D900BF00BF03B05DF804FB00B5F2
:1073640083B00023019305E00198FFF7B1FF019B6F
:1073740001330193019B032BF6D900BF00BF03B077
:107384005DF804FB00B583B00190019B032B03D986
:1073940007495F20FFF734F8064A019B13441B7822
:1073A4001846FFF7C4FE00BF03B05DF804FB00BF3E
:1073B400DC4703002448030000B583B00023019395
:1073C40009E0094A019B13441B781846FFF761FE44
:1073D400019B01330193019B032BF2D9FFF7ACFF0F
:1073E40000BF03B05DF804FB2448030000B585B07A
:1073F4000190019B032B03D91149AC20FFF700F83E
:10740400104A019B13441B781846FFF7C4FE034639
:10741400002B14BF012300238DF80F309DF80F308B
:10742400002B14BF01230023DBB283F00103DBB282
:1074340003F00103DBB2184605B05DF804FB00BF9E
:10744400DC4703002848030000B583B00023019300
:107454000AE0094A019B13441B7803211846FFF7ED
:1074640029FE019B01330193019B032BF1D900BF3A
:1074740000BF03B05DF804FB2848030084B001900A
:107484004FF0FF330293002303930DE00A4A039B5A
:1074940013441B781A46019B934202D1039B029327
:1074A40005E0039B01330393039B032BEED9029B5B
:1074B400184604B0704700BF2848030000B583B0E5
:1074C4000190019B032B03D90549CB20FEF798FFBC
:1074D400044A019B13441B78184603B05DF804FB6F
:1074E400DC4703002848030000B583B00190019BEA
:1074F40003F00103002B01D0FFF75EFF019B03F0B3
:107504000203002B01D0FFF79FFF00BF03B05DF81B
:1075140004FB000000B583B00190019B1B68184672
:1075240000F03DF80346002B04D105494FF4F670F2
:10753400FEF766FF4FF0A043184603B05DF804FB66
:107544002C48030000B585B001900B468DF803303C
:1075540001AB1846FFF7DEFF0390019A039B02F587
:10756400E07253F82230019A23F44031039B02F570
:10757400E07243F82210019A039B02F5E07253F87B
:1075840022109DF803301B04019A1943039B02F552
:10759400E07243F8221000BF05B05DF804FB84B02C
:1075A4000190019B5B09029300230393029B002B30
:1075B40003D14FF0FF33039300BF019B03F01F037C
:1075C4000193039A019B22FA03F303F00103002BB6
:1075D40014BF01230023DBB2184604B0704700B582
:1075E40083B00190019B032B04D80198FFF7FEFEA2
:1075F400034600E00023184603B05DF804FB0000D6
:1076040000B587B003460A468DF8073013468DF857
:10761400063000238DF81730002304939DF80730BB
:107624001846FFF72BFF0490049B032B62D89DF8A8
:107634000630022B52D0022B5CDC002B31D0012B04
:1076440058D13549049A13465B0013440B441B7804
:107654008DF817303049049A13465B0013440B44E9
:1076640001331B78002B0ED02C4B2D4A4FF4804154
:10767400184607F0ABFD0390039B002B03D1284A67
:107684009DF8073013702449049A13465B00134491
:107694000B4402331978234A049B13440A461A7094
:1076A40028E01E4B184607F0E9FD1E4A049B1344CC
:1076B40019781948049A13465B00134403440233AF
:1076C4001B78994215D11449049A13465B0013445C
:1076D4000B4402331B788DF817300AE00E49049AE4
:1076E40013465B0013440B4401331B788DF81730A9
:1076F40000E000BF9DF81730002B09D00A4B1B682F
:10770400002B05D0084B1B689DF81720104698479E
:1077140000BF07B05DF804FB30360020583000206D
:107724003C360020403600202C36002000B583B0C3
:107734000190019B1B7802211846FFF761FF00BFEF
:1077440003B05DF804FB000000B583B00C4B1B785C
:10775400002B0FD00023019308E0019B022B02D0E1
:107764000198FFF7CFFD019B01330193019B032B8C
:10777400F3D901E0FFF7E0FD00BF03B05DF804FBBF
:10778400283600202DE9D04F92B003468DF83F30C3
:107794000023119300231093CC4B1B78002B04D0AF
:1077A400CA4A00231370FFF7CFFF9DF83F30172B11
:1077B40000F23F8201A252F823F000BF21780200B8
:1077C4003978020039780200D57802007179020014
:1077D400ED790200817A0200A17A0200B17A0200F6
:1077E400DD7A0200FB7A0200197B0200377B02007B
:1077F400457B0200457B0200457B0200457B02007D
:10780400457B0200D97B0200E77B0200FB7B020080
:107814000F7C0200297C0200297C0200FFF794FF00
:10782400AB4B184607F02AFD1190AA4A9DF83F3049
:107834001370FFE10020FFF71DFD0346002B0DD060
:107844000020FFF75FFD9DF83F30022B02D14FF47B
:10785400E16301E04FF47A6310930BE00020FFF73B
:1078640037FD9DF83F30022B01D1C82301E04FF4CE
:10787400C8731093974A9DF83F301370944C109B33
:107884000022009301924FF000024FF00003DDE963
:1078940000673946CB03314643EA51433146CA03B4
:1078A40012F57A71029143F1000303934FF4FA62E3
:1078B4004FF00003DDE902010BF0E2FF02460B4644
:1078C400134600221946204607F080FC1190B1E1CE
:1078D4000020FFF7CFFC0346002B0DD00020FFF75C
:1078E40011FD9DF83F30032B02D14FF4487301E0A2
:1078F4004FF47A6310930BE00020FFF7E9FC9DF846
:107904003F30032B01D1C82301E04FF4C873109317
:10791400704A9DF83F3013706D4C109B0022049305
:1079240005924FF000024FF00003DDE90467394689
:10793400CB03314643EA51433146CA0312F57A7107
:10794400069143F1000307934FF4FA624FF00003EA
:10795400DDE906010BF094FF02460B4613460022B4
:107964001946204607F032FC119063E10020FFF72E
:1079740081FC0346002B06D00020FFF7C3FC4FF424
:107984007A63109305E00020FFF7A2FC4FF4C8735C
:107994001093504A9DF83F3013704D4C109B0022B9
:1079A4009A4693464FF000024FF000034FEACB3360
:1079B40043EA5A434FEACA3212F57A71089143F105
:1079C400000309934FF4FA624FF00003DDE9080164
:1079D4000BF056FF02460B4613460022194620467A
:1079E40007F0F4FB119025E10020FFF743FC034668
:1079F400002B0CD00020FFF785FC9DF83F30052BB1
:107A040001D1C82301E04FF47A6310930BE0002006
:107A1400FFF75EFC9DF83F30052B01D1C82301E040
:107A24004FF4C87310932B4A9DF83F301370284CC1
:107A3400109B0022984691464FF000024FF000033D
:107A44004FEAC93343EA58434FEAC83212F57A7110
:107A54000A9143F100030B934FF4FA624FF00003D1
:107A6400DDE90A010BF00CFF02460B461346002227
:107A74001946204607F0AAFB1190DBE00020FFF72F
:107A840081FC144A9DF83F301370114B002240F2E0
:107A94006661184607F09AFB1190CBE00020FFF7CF
:107AA40017FC0C4A9DF83F301370C3E0074B0122CA
:107AB4001A700120FFF766FC054B002240F2666154
:107AC400184607F083FB1190B4E000BF2136002074
:107AD4001830002020360020594B01221A70012052
:107AE400FFF750FC574B00224FF40051184607F0A3
:107AF4006DFB11909EE0524B01221A700120FFF79A
:107B040041FC504B002240F26661184607F05EFBD0
:107B140011908FE04A4B01221A700120FFF732FCCA
:107B2400484B00224FF40051184607F04FFB1190C8
:107B340080E0FFF714FC444A9DF83F30137079E06D
:107B4400424B184607F09AFB11909DF83F30C3F161
:107B540011031093109B002B35D0119B002B32D1B5
:107B6400109B012B28D9394C109B9BB21A46C82371
:107B740002FB03F3DA171E4617464FF000024FF0DC
:107B84000003FB0343EA5643F20312F57A710C91A6
:107B940043F100030D934FF4FA624FF00003DDE963
:107BA4000C010BF06DFE02460B46134600221946EB
:107BB400204607F00BFB11900220FFF789FB244BB2
:107BC40001221A7036E00220FFF79CFB204B0022B2
:107BD4001A702FE0FFF7B8FD1B4A9DF83F30137071
:107BE40028E0FFF7B1FD0020FFF772FB164A9DF86D
:107BF4003F3013701EE0FFF7A7FD0120FFF768FB7D
:107C0400114A9DF83F30137014E0FFF79DFD0020EA
:107C1400FFF75EFB0120FFF75BFB0B4A9DF83F304B
:107C2400137007E0FFF79BFB074A9DF83F30137082
:107C340000E000BF119B184612B0BDE8D08F00BF12
:107C44002136002018300020203600203830002053
:107C54002836002000B583B00190074B1B6803F061
:107C64000103002B04D0054B1B781846FFF78AFD4F
:107C740000BF03B05DF804FB24360020203600204A
:107C840000B583B001900220FFF77CFB00BF03B076
:107C94005DF804FB00B585B003468DF8073000237A
:107CA4000393084B1B6803F00103002B05D09DF8D8
:107CB40007301846FFF766FD0390039B184605B08E
:107CC4005DF804FB2436002000B585B001900091D6
:107CD400002303932A4A019B13602A4A009B1360E2
:107CE400019B03F00203002B2AD00023029308E037
:107CF40001220121029800F055F80390029B013300
:107D04000293029B032B02D8039B002BF0D0039B0E
:107D1400002B06D140F2333204211B4806F084FCC8
:107D24000390039B002B02D106F006FD0390039BF6
:107D3400002B05D1154A0021154807F00DFA0390D0
:107D4400019B03F00103002B14D00120FFF7CCFBAF
:107D5400039B002B05D10F4A00210F4807F0FCF9C3
:107D64000390039B002B05D10C4A01210C4807F01A
:107D7400F3F90390039B184605B05DF804FB00BFBC
:107D8400243600202C360020684803003177020096
:107D940064480300597C02005C480300857C0200AF
:107DA4006048030084B001900B468DF803301346FD
:107DB4008DF8023000230393019B032B3CD89DF8DC
:107DC4000230012B0BD19DF80330012B04D1019B10
:107DD400DBB20E33DBB200E000238DF802309DF8F5
:107DE4000330022B0FD0022B23DC002B16D0012BE7
:107DF4001FD11449019A13465B0013440B449DF8A8
:107E040002201A701AE00F49019A13465B001344CA
:107E14000B4401339DF802201A700FE00949019ABE
:107E240013465B0013440B4402339DF802201A707E
:107E340004E00723039301E007230393039B1846FD
:107E440004B070473036002000B585B001900B4671
:107E54008DF80330019B032B14D89DF80330002BBD
:107E640001D0032300E000238DF80F300198FFF7C1
:107E740025FB02469DF80F3019461046FFF762FBBA
:107E8400002300E00623184605B05DF804FB00B5A6
:107E940083B0019001210198FFF7D6FF03461846ED
:107EA40003B05DF804FB00B583B00122002100207B
:107EB400FFF778FF0190019B002B04D0019B072B57
:107EC40001D0019B1CE0072202210120FFF76AFF79
:107ED4000190019B002B04D0019B072B01D0019B37
:107EE4000EE0042202210020FFF75CFF0190019BB9
:107EF400002B04D0019B072B01D0019B00E0002341
:107F0400184603B05DF804FB00B583B001220221DA
:107F14000020FFF747FF0190019B002B04D0019B39
:107F2400072B01D0019B1CE0072202210120FFF74F
:107F340039FF0190019B002B04D0019B072B01D03A
:107F4400019B0EE00A2200210020FFF72BFF019085
:107F5400019B002B04D0019B072B01D0019B00E067
:107F64000023184603B05DF804FB00B583B001900C
:107F74000120FFF734FB0346002B03D0019B0222B0
:107F84001A700CE00020FFF72AFB0346002B03D0F5
:107F9400019B0B221A7002E0019B00221A7000BFA1
:107FA40003B05DF804FB00B583B00020FFF76FFF5A
:107FB4000190019B002B04D0019B062B01D0019B57
:107FC4000CE00120FFF763FF0190019B002B04D01C
:107FD400019B062B01D0019B00E00023184603B04F
:107FE4005DF804FB00B585B001900091019B1B88EE
:107FF400102B02D0112B18D02FE01A4B1B68002B2A
:108004000DD1FFF750FF0390039B002B07D0164BB5
:108014001B68002B03D0144B1B6803989847114B23
:108024001B6801330F4A136017E00E4B1B68013BBA
:108034000C4A13600B4B1B68002B0DD1FFF764FF38
:108044000390039B002B07D0074B1B68002B03D026
:10805400054B1B680398984700BF00BF05B05DF847
:1080640004FB00BF483600204436002000B585B02C
:1080740001900091002303930A4A019B1360009B23
:10808400002B02D00098FFF770FF074B1B68002BF2
:1080940002D1FFF739FF0390039B184605B05DF842
:1080A40004FB00BF4436002048360020BFF34F8F46
:1080B40000BF064BDB6803F4E0620449044B13433E
:1080C400CB60BFF34F8F00BF00BFFDE700ED00E0C2
:1080D4000400FA0582B01D4B1B68B3F1FF3F0AD1BF
:1080E4001B4B1B68DBB201931A4B1B681B0903F083
:1080F4000F03009305E0154B1B680193164B1B6897
:108104000093019B062B1DD1009B033B042B17D826
:1081140001A252F823F000BF318102003581020030
:10812400398102003D8102004181020001230AE0FD
:10813400012308E0012306E0012304E0012302E017
:10814400012300E00023184602B0704730010010FC
:10815400E00F00F0E80F00F03401001082B0174B7C
:108164001B68DBB20193164B1B681B0903F00F035A
:108174000093019B062B1DD1009B033B042B17D8B6
:1081840001A252F823F000BFA1810200A5810200E0
:10819400A9810200AD810200B181020001230AE03D
:1081A400002308E0002306E0002304E0002302E0AB
:1081B400002300E00023184602B07047E00F00F0EF
:1081C400E80F00F082B01D4B1B68B3F1FF3F0AD1EA
:1081D4001B4B1B68DBB201931A4B1B681B0903F092
:1081E4000F03009305E0154B1B680193164B1B68A6
:1081F4000093019B062B1DD1009B033B042B17D836
:1082040001A252F823F000BF21820200258202005D
:10821400298202002D8202003182020001230AE039
:10822400012308E0012306E0012304E0012302E026
:10823400012300E00023184602B07047300100100B
:10824400E00F00F0E80F00F03401001082B0174B8B
:108254001B68DBB20193164B1B681B0903F00F0369
:108264000093019B062B1DD1009B033B042B17D8C5
:1082740001A252F823F000BF91820200958202000D
:10828400998202009D820200A182020001230AE079
:10829400002308E0002306E0002304E0002302E0BA
:1082A400002300E00023184602B07047E00F00F0FE
:1082B400E80F00F082B01D4B1B68B3F1FF3F0AD1F9
:1082C4001B4B1B68DBB201931A4B1B681B0903F0A1
:1082D4000F03009305E0154B1B680193164B1B68B5
:1082E4000093019B062B1DD1009B033B042B17D845
:1082F40001A252F823F000BF11830200158302008B
:10830400198302001D8302002183020001230AE075
:10831400012308E0012306E0012304E0012302E035
:10832400012300E00023184602B07047300100101A
:10833400E00F00F0E80F00F03401001082B0174B9A
:108344001B68DBB20193164B1B681B0903F00F0378
:108354000093019B062B1DD1009B033B042B17D8D4
:1083640001A252F823F000BF81830200858302003A
:10837400898302008D8302009183020001230AE0B5
:10838400002308E0002306E0002304E0002302E0C9
:10839400002300E00023184602B07047E00F00F00D
:1083A400E80F00F082B0174B1B68DBB20193164B49
:1083B4001B681B0903F00F030093019B062B1DD1BF
:1083C400009B033B042B17D801A252F823F000BFF3
:1083D400E9830200ED830200F1830200F5830200C9
:1083E400F983020001230AE0002308E0002306E0E9
:1083F400002304E0002302E0002300E000231846E9
:1084040002B07047E00F00F0E80F00F082B01D4B9F
:108414001B68B3F1FF3F0AD11B4B1B68DBB201930E
:108424001A4B1B681B0903F00F03009305E0154B5F
:108434001B680193164B1B680093019B062B1DD1EF
:10844400009B033B042B17D801A252F823F000BF72
:10845400698402006D840200718402007584020044
:108464007984020000230AE0002308E0012306E0E7
:10847400012304E0012302E0012300E00023184665
:1084840002B0704730010010E00F00F0E80F00F078
:108494003401001082B01D4B1B68B3F1FF3F0AD1B9
:1084A4001B4B1B68DBB201931A4B1B681B0903F0BF
:1084B4000F03009305E0154B1B680193164B1B68D3
:1084C4000093019B062B1DD1009B033B042B17D863
:1084D40001A252F823F000BFF1840200F5840200E7
:1084E400F9840200FD8402000185020001230AE0F0
:1084F400012308E0012306E0012304E0012302E054
:10850400012300E00023184602B070473001001038
:10851400E00F00F0E80F00F03401001082B01D4BB2
:108524001B68B3F1FF3F0AD11B4B1B68DBB20193FD
:108534001A4B1B681B0903F00F03009305E0154B4E
:108544001B680193164B1B680093019B062B1DD1DE
:10855400009B033B042B17D801A252F823F000BF61
:10856400798502007D8502008185020085850200EF
:108574008985020001230AE0012308E0012306E0C3
:10858400012304E0012302E0012300E00023184654
:1085940002B0704730010010E00F00F0E80F00F067
:1085A4003401001082B0154B1B680193144B1B68F7
:1085B4000093019B062B1DD1009B033B042B17D872
:1085C40001A252F823F000BFE1850200E585020014
:1085D400E9850200ED850200F185020000230AE02E
:1085E400002308E0002306E0012304E0012302E065
:1085F400012300E00023184602B070473001001048
:108604003401001082B0154B1B680193144B1B6896
:108614000093019B062B1DD1009B033B042B17D811
:1086240001A252F823F000BF4186020045860200F1
:10863400498602004D8602005186020000230AE0AA
:10864400002308E0002306E0002304E0012302E005
:10865400012300E00023184602B0704730010010E7
:108664003401001008B5FFF7CDFF0346002B07D0F7
:108674004FF010234FF08042D3F80832C2F8583537
:1086840000BF08BD00BF044BD3F80034002BFAD060
:1086940000BF00BF704700BF00E0014000B583B0D9
:1086A4000190054A019BC2F80435FFF7EBFF00BFB8
:1086B40003B05DF804FB00BF00E00140024B034A35
:1086C4001A6000BF704700BF783000200090D003CC
:1086D40008B5FFF7FFFC0346002B06D0964B1B683A
:1086E4001B0A964A03F01F031360FFF737FD034686
:1086F400002B02D0924B934A1A60FFF763FD0346A6
:10870400002B06D0904B1B685B0B904A03F00703C9
:108714001360FFF79BFD0346002B05D08C4BDB68F1
:108724008B4A23F08073D360FFF7C4FD0346002B0C
:108734000ED04FF080430022C3F80C214FF0804349
:108744000022C3F810214FF080430022C3F83825DB
:10875400FFF7F4FD0346002B02D07E4B03221A6080
:10876400FFF720FE0346002B0BD07B4B05221A603B
:108774007A4B01221A607A4B00221A60794B3F220D
:108784001A60FFF743FE0346002B76D04FF0805368
:10879400754AD3F80434C2F820354FF08053724A36
:1087A400D3F80834C2F824354FF080536E4AD3F816
:1087B4000C34C2F828354FF080536B4AD3F8103488
:1087C400C2F82C354FF08053674AD3F81434C2F8FA
:1087D40030354FF08053644AD3F81834C2F8343536
:1087E4004FF08053604AD3F81C34C2F840354FF040
:1087F40080535D4AD3F82034C2F844354FF0805397
:10880400594AD3F82434C2F848354FF08053564AB5
:10881400D3F82834C2F84C354FF08053524AD3F879
:108824002C34C2F850354FF080534F4AD3F83034CB
:10883400C2F854354FF080534B4AD3F83434C2F85D
:1088440060354FF08053484AD3F83834C2F8643561
:108854004FF08053444AD3F83C34C2F868354FF0A3
:108864008053414AD3F84034C2F86C354FF08053FA
:108874003D4AD3F84434C2F87035FFF70BFE034683
:10888400002B05D0394B1B68394A03F04F031360A2
:10889400FFF744FE0346002B0DD04FF08043D3F87E
:1088A400003403F00103002B05D04FF080436FF038
:1088B4000102C3F80024FFF775FE0346002B05D020
:1088C4002C4B1B682B4A43F4806313602A4BD3F868
:1088D4008830294A43F47003C2F88830BFF34F8FBD
:1088E40000BFBFF36F8F00BFFFF7BCFE4FF0102334
:1088F400D3F80032002B05DB4FF01023D3F80432F9
:10890400002B15DA0120FFF7C9FE4FF010231522C2
:10891400C3F80022FFF7B6FE4FF010231522C3F868
:108924000422FFF7AFFE0020FFF7B8FEFFF7BEFBFF
:10893400FFF7C4FE00BF08BD24030010403501400A
:1089440074C007400DF0ADBA440200103C0500406D
:10895400F0ED00E0A00500401056004088560040AD
:10896400185600401456004000C000405802001041
:10897400E40E00403C17004000ED00E064DF704767
:1089840000BF184686B0039001921A460B46ADF814
:108994000A3013468DF80930039B002B02D0019B4B
:1089A400002B01D100235BE00023ADF816300CE06E
:1089B400BDF81630039A13441B781A46BDF81630D6
:1089C40013449BB20133ADF81630BDF816305A1C6F
:1089D400BDF80A309A420FDA019B1B88BDF81620B5
:1089E4009A42E5D3BDF816300133039A13441B7839
:1089F4009DF809209A42DBD1BDF81620BDF80A3053
:108A04009A4201D300232BE0BDF816300233ADF8AF
:108A14001430BDF81630039A13441B78002B07D08A
:108A2400BDF81630039A13441B78013B9BB200E057
:108A34000023ADF81230BDF81230002B08D0BDF879
:108A44001420BDF812301A44BDF80A309A4201DDF0
:108A5400002305E0019BBDF814201A80BDF81230F4
:108A6400184606B0704700B58FB003900B460192CC
:108A7400ADF80A300023ADF8263010238DF82530E8
:108A8400BDF80A30ADF8363005AA0DF125031946B4
:108A94000198FFF773FF0B90039B002B02D00B9BF5
:108AA400002B01D0002370E09DF82530102B14D04A
:108AB400102B19DC022B02D0042B07D014E0032363
:108AC4008DF8103002238DF811300FE005238DF856
:108AD400103004238DF8113008E007238DF810308E
:108AE40006238DF8113001E000234EE000238DF8B9
:108AF400353014E09DF8353038336B4413F8283C96
:108B04000DF12602BDF80A100398FFF73BFF034658
:108B1400ADF836309DF8353001338DF835309DF899
:108B24003530012B03D8BDF82630002BE2D0BDF838
:108B34002630002B01D1002327E0BDF826301A4649
:108B4400039B13440A930023ADF8323016E0BDF8BA
:108B540032300A9A13449DF8252005A918460BF0D3
:108B6400FFFA0346002B01D101230EE09DF82530C6
:108B74001A46BDF832301344ADF83230BDF8322015
:108B8400BDF836309A42E2D3002318460FB05DF8A0
:108B940004FB000084B001900023039316E0104A04
:108BA400039B9B0013449A78019B9B789A420AD1B9
:108BB4000B4A039B32F82320019B1B889A4202D163
:108BC400084B1B6808E0039B01330393064B1B68A7
:108BD400039A9A42E3D30023184604B0704700BFB7
:108BE4004C360020643600206C36002000B583B07B
:108BF400019000910198FFF7CDFF0346002B01D0AF
:108C0400002314E00C4B1B68052B0FD80A4B1B6880
:108C14000A4A01999B0013440A4610681860064BDF
:108C24001B680133044A1360002300E00423184640
:108C340003B05DF804FB00BF6C3600204C36002006
:108C440000B585B001900023039311E0019A039BC2
:108C5400DB01134403F553731B68039AD20102F535
:108C6400347201990A4410469847039B01330393D5
:108C7400064B1B68039A9A42E8D3019B0022C3F86F
:108C8400CC2200BF05B05DF804FB00BF6C360020A9
:108C940000B5A3B001900B46ADF8023003AB7C22C3
:108CA400002118460BF0F0FABDF80230ADF80E3092
:108CB40003238DF80C30019B0493064B1B68002B97
:108CC40004D0044B1B6803AA1046984700BF23B086
:108CD4005DF804FB6436002000B5A7B00390029150
:108CE4001346ADF80630039B93F8C6321A46762332
:108CF40002FB03F3039A13442593259B1846FFF7BD
:108D040049FF2490249B002B12D005AB7C22002128
:108D140018460BF0B9FA01238DF81430BDF806306B
:108D2400ADF81630029B069305AA249B104698477B
:108D340000BF27B05DF804FB00B587B00390029133
:108D44001346ADF80630029B0593059B002283F879
:108D5400C822BDF806301A4603990598FFF7BCFFF0
:108D6400BDF8063019460598FFF792FF00BF07B01B
:108D74005DF804FB00B585B001900B468DF8033017
:108D84001346ADF80030019B93F8C6321A46762399
:108D940002FB03F3019A13440393039B1846FFF762
:108DA400F9FE0290029B002B52D0019BD3F8CC32E7
:108DB400052B4DD8019BD3F8CC32019ADB01134427
:108DC40003F2D223BDF800201A80019BD3F8CC32E1
:108DD400019ADB01134403F53473039A04331146F7
:108DE400762218460BF01EFA9DF80330002B0AD0A9
:108DF400019BD3F8CC32019ADB01134403F534739D
:108E040000221A7009E0019BD3F8CC32019ADB01ED
:108E1400134403F5347302221A70019BD3F8CC3245
:108E2400019ADB01134403F55373029A1A60019B00
:108E3400D3F8CC325A1C019BC3F8CC22019BD3F843
:108E4400CC22054B1B689A4202D10198FFF7F8FE29
:108E540000BF05B05DF804FB6C36002000B58DB092
:108E640001900B46ADF8023002AB202200211846D7
:108E74000BF00AFA019B93F8C7320133DAB2019B73
:108E840083F8C722019B93F8C7321A462A4B1B6802
:108E94009A4244D2019B002283F8C522019B93F895
:108EA400C6320133DAB2019B83F8C622019B93F8E0
:108EB400C6321A46762302FB03F3019A13440B933A
:108EC400019B93F8C6320B991C4A9B001344186803
:108ED40008600B9B00221A7102238DF808300123CD
:108EE400ADF818300B9A0DF11A0312681A60019B41
:108EF4000593134B0493134B1B68BDF8022002A97E
:108F0400184601F037FB0A900A9B002B11D0BDF8DC
:108F140002301A4601990A98FFF70EFF09E0019BF7
:108F2400002283F8C822BDF8023019460198FFF7E1
:108F3400AFFE0DB05DF804FB6C3600204C3600200B
:108F44003D8D02006836002082B001900091009BA4
:108F54001A89019B93F8C63218460199762300FBBF
:108F640003F30B4408331B889A4201D2012300E027
:108F74000023184602B0704784B003900291019216
:108F84000093019B002B25D1029B1A89039B93F824
:108F9400C63218460399762300FB03F30B440833C7
:108FA4001B889A4201D100232AE0029B1B890133CA
:108FB4009AB2009B1A80039B93F8C6321946039A0F
:108FC400762301FB03F3134408331A88009B5A8069
:108FD400012315E0029B1B890133019AD288934235
:108FE40001D100230CE0029B1B8901339AB2009B40
:108FF4001A80019BDB88013B9AB2009B5A800123B3
:10900400184604B07047000000B58FB001900B46BD
:10901400ADF8023002AB2022002118460BF034F9DF
:109024000AAB0422002118460BF02EF9019B93F899
:10903400C6321A46762302FB03F3019A13440D93B6
:10904400019B93F8C532002B21D0019B93F8C532C4
:10905400013B8DF83330019B93F8C6321A467623D0
:1090640002FB03F3019A13440D939DF83320134636
:10907400DB0013445B0008330D9A134402330B9353
:109084000B9B1B8901339BB2ADF8283003E00D9B89
:10909400DB88ADF828300D9B1B89ADF82A300323FB
:1090A4008DF808300A9B0693019B0593074B0493A4
:1090B400074B1B68BDF8022002A9184601F05AFAB2
:1090C400034618460FB05DF804FB00BF3D8D020057
:1090D4006836002000B593B0039002911346ADF8B2
:1090E400063000238DF8433005AB202200211846BA
:1090F4000BF0CAF8039B93F8C6321A46762302FB98
:1091040003F3039A13440E93039B93F8C5321A4650
:109114001346DB0013445B0008330E9A13440233F6
:109124001193039B93F8C53201330E9A127993423B
:1091340009D10DAB002211990398FFF71DFF0346D7
:109144008DF843303DE0039B93F8C5328DF84230EF
:1091540031E09DF842200E9B1B79013B9A4202D1DB
:1091640000230F930BE09DF842305A1C1346DB009A
:1091740013445B0008330E9A134402330F930DAB70
:109184000F9A11990398FFF7F7FE0346002B03D0BB
:1091940001238DF8433014E00F9B1193039B93F844
:1091A400C5320133DAB2039B83F8C5229DF84230FD
:1091B40001338DF842300E9B1B799DF842209A4270
:1091C400C7D39DF8433083F00103DBB2002B04D0F6
:1091D400029B01221A70002314E0029B00221A70E1
:1091E40004238DF814300D9B0993039B0893074BBC
:1091F4000793074B1B68BDF8062005A9184601F024
:10920400B9F90346184613B05DF804FB3D8D02001E
:109214006836002000B587B001900091019B93F857
:10922400C6321A46762302FB03F3019A13440393CE
:10923400009B1A88019BB3F8CA329A4261D1009B01
:109244005B88002B4FD1009B06330593039B059A43
:109254000633063212681A60019B93F8C4328DF803
:109264001330059B1B888DF812309DF813209DF850
:1092740012301344062B0ADC019B93F8C4229DF898
:1092840012301344DAB2019B83F8C42219E0019B23
:10929400062283F8C4221D4A1D4BD31ADB081B0483
:1092A40043F002031B49184609F05EF8174A184BAD
:1092B400D31ADB081B0443F002031749184609F0CC
:1092C40053F8009B1B8819460198FFF79DFE0290F6
:1092D400029B002B16D0009B1B881A46019902980A
:1092E400FFF72AFD0EE0009B1B881A460021019817
:1092F400FFF740FD009B1B8819460198FFF7AEFD60
:1093040000E000BF07B05DF804FB00BF2844030081
:10931400E843030094480300B448030000B58DB04B
:109324000190009100238DF82F30009B1A88019B37
:10933400B3F8CA329A4240F0FC80019B93F8C632DB
:109344001A46762302FB03F3019A13440893009B05
:109354005B88002B40F0BC80009B06330793089B7E
:109364001B798DF81B30079B1B888DF81A309DF8EC
:109374001B209DF81A301344062B08DC089B1A792D
:109384009DF81A301344DAB2089B1A711AE0089B4C
:1093940006221A71694A6A4BD31ADB081B0443F08C
:1093A4000200089B1B881A46664908F0EBFF634AD3
:1093B400634BD31ADB081B0443F0020362491846CB
:1093C40008F0D2FF9DF81B300A930023099345E06F
:1093D40008990A9A1346DB0013445B000B4403F11B
:1093E40008010798099A13469B0013445B00C218AE
:1093F4008B1C0232106851681860596012891A81F6
:1094040008990A9A1346DB0013445B000B44143397
:1094140000221A8008990A9A1346DB0013445B0061
:109424000B44163300221A8008990A9A1346DB006B
:1094340013445B000B44183300221A8008990A9ADB
:109444001346DB0013445B000B441A3300221A80DA
:109454000A9B01330A93099B01330993089B1B79E7
:109464001A460A9B9342B3D30A9B5A1E1346DB0047
:1094740013445B000833089A134402330593059997
:109484000198FFF761FD034683F00103DBB2002B73
:1094940003D1089B1B79062B03D101238DF82F30B0
:1094A40019E0089B1A79019B83F8C522009B1B884D
:1094B40019460198FFF7A8FD0490049B002B0AD0DD
:1094C400009B1B881A4601990498FFF735FC31E08C
:1094D40001238DF82F309DF82F30002B2AD0019BCB
:1094E400002283F8C522009B1A880DF10F03194648
:1094F4000198FFF7EFFD0490049B002B07D0009B1D
:109504001B881A4601990498FFF716FC12E09DF88F
:109514000F30002B0ED0009B1B881A4601210198A6
:10952400FFF728FC009B1B8819460198FFF796FC5F
:1095340000E000BF0DB05DF804FB00BF2844030049
:10954400E8430300FC4803004449030000B589B024
:1095540001900091009B1A88019BB3F8CA329A4289
:1095640040F0CC80019B93F8C6321A46762302FB66
:1095740003F3019A13440693009B06330593019B5E
:1095840093F8C5321A461346DB0013445B000833D4
:10959400069A134402330493009B5B88002B70D11A
:1095A4000023079365E00599079A13465B0013446B
:1095B4005B000B4404331B88A3F52453082B45D8C4
:1095C40001A252F823F000BF09960200219602007E
:1095D400F195020051960200519602005196020044
:1095E4005196020051960200399602000599079A95
:1095F40013465B0013445B000B4402331A88049B3C
:109604005A8123E00599079A13465B0013445B00D3
:109614000B4402331A88049B9A8117E00599079A30
:1096240013465B0013445B000B4402331A88049B0B
:10963400DA810BE00599079A13465B0013445B003B
:109644000B4402331A88049B1A8200BF049B5B8973
:10965400002B0BD0049B9B89002B07D0049BDB8938
:10966400002B03D0049B1B8A002B09D1079B0133D9
:109674000793059B1B881A46079B934293D300E0EC
:1096840000BF00238DF80B30019B93F8C5320133E2
:10969400069A1279934203D101238DF80B301BE013
:1096A400019B93F8C5320133DAB2019B83F8C522DA
:1096B400009B1A880DF10B0319460198FFF70AFD68
:1096C4000390039B002B07D0009B1B881A4601992B
:1096D4000398FFF731FB12E09DF80B30002B0ED0FE
:1096E400009B1B881A4601210198FFF743FB009B4E
:1096F4001B8819460198FFF7B1FB00E000BF09B0D1
:109704005DF804FB84B0019000230393019B002BBC
:1097140001D10E231AE0019B1B68002B01D10E23FB
:1097240014E0019B5B68002B01D10E230EE0094B72
:1097340000221A60084B01221A70019B1B68074A19
:109744001360019B5B68064A1360039B184604B0D0
:10975400704700BF6C36002070360020643600204D
:109764006836002000B583B00190019B002B01D125
:109774000E230FE0094B1B7883F00103DBB2002BAF
:1097840001D0082306E0064B1B6819460198FFF731
:109794002DFA0346184603B05DF804FB703600202A
:1097A4006436002000B58FB001900B46ADF802304E
:1097B4004FF4BA62002101980AF066FD03AB20223F
:1097C400002118460AF060FD2D4B1B68BDF80220ED
:1097D4001146184600F06CFF0D900D9B0C930C9BEA
:1097E400002B01D00C9B47E0019BBDF80220A3F89D
:1097F400CA22019B0022C3F8CC22019B002283F8D9
:10980400C722019B002283F8C622019B002283F811
:10981400C522019B93F8C6321A46762302FB03F352
:10982400019A13440B93019B93F8C6320B99154A82
:109834009B0013441868086002238DF80C30012340
:10984400ADF81C300B9A0DF11E0312681A60019BCF
:1098540006930D4B05930A4B1B68BDF8022003A920
:10986400184600F087FE0D900D9B002B03D1019B41
:10987400012283F8C8220D9B18460FB05DF804FB43
:10988400683600204C3600203D8D020000B583B0C0
:1098940001900B46ADF80230019B002B01D10E2341
:1098A4001CE0104B1B7883F00103DBB2002B01D0CA
:1098B400082313E00C4B1B68002B01D108230DE097
:1098C400019B93F8C832002B01D0112306E0BDF8A8
:1098D400023019460198FFF765FF0346184603B0A6
:1098E4005DF804FB703600206C36002082B00190D5
:1098F4000091009B1A88019BB3F8CA329A4208D19E
:10990400019B002283F8C822019B4FF6FF72A3F843
:10991400CA2200BF02B0704700B585B00190009123
:10992400019B002B36D0009B002B33D01B4B1B78A4
:1099340083F00103DBB2002B2CD1009B0393019B2A
:109944001B88332B17D0332B23DC322B0CD0322B38
:109954001FDC112B16D0302B1BD1019B043319466D
:109964000398FFF757FC15E0019B0433194603984D
:10997400FFF7D4FC0EE0019B043319460398FFF76C
:10998400E5FD07E0019B043319460398FFF7AEFF9A
:1099940000E000BF05B05DF804FB00BF7036002096
:1099A40090DF704700BF1846A5DF704700BF184618
:1099B400B5DF704700BF184682B00190019BF722C3
:1099C4001A80019B17225A80019B00221A71019B65
:1099D40000225A71019BFB229A71019B1B22DA71AE
:1099E40000BF02B07047000030B589B003460A4694
:1099F400ADF806301346ADF80430BDF80430ADF8C8
:109A04001430BDF80430ADF816300023ADF818302A
:109A14000023ADF81A3003AB00221A609A8003AA1F
:109A240005A9BDF806301846FFF7BAFF0790079B53
:109A3400002B39D01E4A1F4BD31ADB081B0443F0FA
:109A44000104BDF80650079807F0D8FF03462A46DC
:109A54001949204608F0A7FCBDF80C30002B03D1AF
:109A6400BDF80E30002B0ED0114A124BD31ADB086E
:109A74001B0443F00100BDF80C301A46BDF80E304B
:109A84000E4908F090FCBDF81030002B0CD0084AA9
:109A9400084BD31ADB081B0443F00103BDF8102064
:109AA4000749184608F06EFC079B184609B030BDFC
:109AB40048440300E8430300B0490300FC490300A1
:109AC4003C4A030010B586B001900091009B9B882E
:109AD400ADF80E30BDF80E30DB00019A13440633A6
:109AE4000593019B1A79059B9A71009BDB7B012BE3
:109AF40002D0022B05D009E0019B1A88059B1A802D
:109B040004E0019B5A88059B1A8000BF059B1A88B4
:109B1400059B5B889A4226D9059B1A88BDF80E30AE
:109B240011461846FFF740FF0490049B002B03D115
:109B3400059B01225A7116E0049B112B03D1059B4E
:109B440001221A710FE0114A114BD31ADB081B04CE
:109B540043F00104049807F051FF03461A460D49E7
:109B6400204608F00FFC059B9A79059BDB799A4205
:109B740008D9059B9B791A46BDF80E301146184644
:109B8400FFF732FF00BF06B010BD00BF484403001A
:109B9400E8430300944A030000B583B001900091A8
:109BA400009B9B88DB00019A134406331846FFF799
:109BB40003FF00BF03B05DF804FB00B587B001905C
:109BC4000091009B9B88ADF81630009B5B89ADF833
:109BD4001430BDF81630DB00019A134406330493A5
:109BE400049B1B88BDF81420934228BF13469AB2E5
:109BF400049B5A80049B5B88172B38BF17239AB2A7
:109C0400049B5A80019B1B69002B15D0049B5B7934
:109C1400002B11D040F67723ADF80830BDF816308C
:109C2400ADF80A30049B5B88ADF80C30019B1B69CE
:109C340002AA114601989847049B00225A71049B7A
:109C440000221A7100BF07B05DF804FB10B588B09C
:109C540001900091009B9B88ADF81A30009BDB8833
:109C6400ADF81830BDF81A30DB00019A13440633FE
:109C74000593BDF81830172B38BF1723ADF81830EB
:109C8400059B1B88BDF81820934228BF13469AB23F
:109C9400059B5A80059B00221A71059B1A88BDF802
:109CA4001A3011461846FFF783FE0790079B002BD6
:109CB4000FD0174A174BD31ADB081B0443F00104D7
:109CC400079807F09BFE03461A461349204608F0FE
:109CD40059FB059B5B79002B16D1019B1B69002B5B
:109CE40013D040F67723ADF80C30BDF81A30ADF838
:109CF4000E30059B5B88ADF81030019B1B6903AAED
:109D040011460198984700E000BF08B010BD00BF9D
:109D140048440300E8430300C84A030030B591B047
:109D240001900091009B04AC1D1D0FCD0FC40FCDFD
:109D34000FC495E8070084E80700BDF81030ADF8BB
:109D44003E30BDF81420BDF83E30D1B2019ADB009C
:109D540013440A465A73019B1B69002B19D002ABAA
:109D640000221A609A804DF67A23ADF80830BDF8C7
:109D74003E30ADF80A30BDF83E30019ADB001344A2
:109D84005B7B8DF80C30019B1B6902AA114601987C
:109D9400984700BF11B030BD00B587B00190009165
:109DA400009B04330593059B1B88DB00019A134435
:109DB40006330493059B9B888DF80F30049B9B7995
:109DC4009DF80F20934228BF13468DF80E30059B53
:109DD4001B889DF80E2092B211461846FFF704FE28
:109DE40000BF07B05DF804FB00B585B00190009199
:109DF400019B002B01D10E231DE0019B009A1A61E7
:109E0400019BF7221A80019BF7225A80019BFB22B7
:109E14001A71002303930AE0039BDB00019A1344A5
:109E240006331846FFF7C8FD039B01330393039BD6
:109E3400002BF1D00023184605B05DF804FB82B076
:109E440001900B46ADF80230019B002B01D10E238B
:109E54000EE0BDF80230162B03D9BDF80230F72B03
:109E640001D9072304E0019BBDF802205A80002396
:109E7400184602B07047000010B586B001900091FA
:109E8400009B0593019B9B88ADF81230BDF81230FE
:109E9400002B40F09880019B1B88552B48D0552BF4
:109EA40055DC242B32DC102B51DB103B142B4ED809
:109EB40001A252F823F000BF179F0200219F020065
:109EC400539F0200539F0200539F0200539F0200BE
:109ED400539F0200539F0200539F0200539F0200AE
:109EE400539F0200539F0200539F0200539F02009E
:109EF400539F0200539F0200539F0200539F02008E
:109F0400539F0200499F02003F9F02003A2B0AD050
:109F14001DE001990598FFF7D5FD19E00199059811
:109F2400FFF73AFE14E001990598FFF746FE0FE0AB
:109F340001990598FFF78AFE0AE001990598FFF751
:109F4400EDFE05E001990598FFF726FF00E000BF4C
:109F5400BDF81230059ADB0013449B7A002B33D0F2
:109F6400BDF81230059ADB001344DA88BDF81230CC
:109F740011461846FFF718FD0390039B002B0ED1E2
:109F8400BDF81230059ADB00134400229A72BDF822
:109F94001230059ADB0013440122DA7214E0039BA9
:109FA400112B11D0094A0A4BD31ADB081B0443F0C6
:109FB4000104039807F022FD03461A46054920468A
:109FC40008F0E0F900E000BF06B010BD484403000B
:109FD400E8430300944A03009BDF704700BF184620
:109FE4009DDF704700BF18469EDF704700BF1846CC
:109FF400A1DF704700BF1846A3DF704700BF1846B3
:10A00400AEDF704700BF184600B585B001900091DF
:10A01400009B10330393039BDB88102B01D9092386
:10A0240019E0039BDB881946019806F0CAFE024634
:10A03400009B5A60009B5B68002B01D104230AE05B
:10A04400009B5868039B9968039BDB881A4600238E
:10A0540007F004F80023184605B05DF804FB00B5CA
:10A0640085B001900091009B10330393039B9B6880
:10A074001B88102B01D9092324E0039B9B681B88B0
:10A0840002331946019806F09CFE0246009B5A6072
:10A09400009B5B68002B01D1042313E0009B5868EC
:10A0A400039B99680023022206F0D8FF009B58689E
:10A0B400039BD968039B9B681B881A46022306F0FE
:10A0C400CDFF0023184605B05DF804FB00B587B04A
:10A0D40005900B460392ADF81230039B002B1ED063
:10A0E400114A124BD31ADB081B0443F00100059BF1
:10A0F4001B781946BDF81220039B009313460A46A9
:10A104000B4908F064F9059B9B68002B07D0059B5D
:10A114009B68059AD168BDF812200398984700BF40
:10A1240007B05DF804FB00BF50440300E84303009C
:10A13400044B030000B597B001900B46ADF8023014
:10A144000CAB01221946019807F07EFA1590159B75
:10A15400002B40F0AC809DF83030052B7ED801A256
:10A1640052F823F081A1020097A10200C1A10200CC
:10A17400D9A10200EFA1020005A20200BDF840101F
:10A18400BDF84220BDF802301846FFF731FF1590A4
:10A1940071E008AB12930D981299BDF846301A4637
:10A1A400002306F079FF0CAB03F11002BDF8023076
:10A1B40011461846FFF720FF15905CE0BDF84010EB
:10A1C4000CAB03F11202BDF802301846FFF704FF8E
:10A1D400159050E00CAB03F11002BDF802301146AB
:10A1E4001846FFF7FDFE159045E00CAB03F1100295
:10A1F400BDF8023011461846FFF7F6FE15903AE016
:10A2040004AB13930D980DF10E010023022206F006
:10A2140043FF0DF10E0312930D981399129B1B88A3
:10A224001A46022306F038FFBDF80E30ADF852305E
:10A234000CAB03F11002BDF8023011461846FFF7CB
:10A24400DFFE1590159B002B14D1BDF80E30BDF820
:10A2540052209A420ED00C2315930BE0164A174B4A
:10A26400D31ADB081B0443F002031549184608F00F
:10A274007BF800E000BF159B112B18D09DF83030FF
:10A284001A46104B53F82230002B03D00D9B18466E
:10A2940006F0EEFD0CAB00221946019807F0D4F944
:10A2A400BDF802100CAB159A1846FFF70FFF00BF5C
:10A2B40017B05DF804FB00BF50440300E8430300FB
:10A2C400504B03006C4B030000B58FB00190019B11
:10A2D400DB680DF12E010022184607F0B5F90D9048
:10A2E40031E0019B9A68BDF82E3019460B469B005D
:10A2F4000B449B0013440C9303AB002219460C98A7
:10A3040007F0A2F90D9012E09DF80C301A46124B9A
:10A3140053F82230002B03D0049B184606F0A8FD06
:10A3240003AB002219460C9807F08EF90D900D9B93
:10A33400002BE9D0019BDB680DF12E0100221846A9
:10A3440007F082F90D900D9B002BCAD000BF00BF0F
:10A354000FB05DF804FB00BF6C4B030000B585B083
:10A3640001900B46ADF8023000230393019B1B7848
:10A37400052B63D801A252F823F000BF99A3020071
:10A38400AFA30200C5A30200DDA30200F3A30200F1
:10A3940009A40200019B198A019B5A8ABDF8023064
:10A3A4001846FFF725FE039055E0019B03F11002C8
:10A3B400BDF8023011461846FFF71EFE03904AE02E
:10A3C400019B198A019B03F11202BDF80230184661
:10A3D400FFF702FE03903EE0019B03F11002BDF87B
:10A3E400023011461846FFF7FBFD039033E0019B52
:10A3F40003F11002BDF8023011461846FFF7F4FDD0
:10A40400039028E0019B9B691B88ADF80A30019BEF
:10A4140003F11002BDF8023011461846FFF7F0FDB3
:10A424000390039B002B15D1019B9B691B88BDF8EE
:10A434000A209A420ED00C2303930BE00E4A0F4BD2
:10A44400D31ADB081B0443F002030D49184607F036
:10A454008BFF00E000BF039B112B01D1002307E019
:10A46400BDF80230039A19460198FFF72FFE012325
:10A47400184605B05DF804FB50440300E8430300AC
:10A48400504B030084B001900B46ADF8023000231A
:10A49400ADF80E3012E0019B5A68BDF80E305B0037
:10A4A40013441B88BDF802209A4202D1BDF80E3035
:10A4B4000CE0BDF80E300133ADF80E30019B1B8863
:10A4C400BDF80E209A42E6D3BDF80E30184604B00B
:10A4D400704784B001900B46ADF802300023ADF80C
:10A4E4000E301AE0019B5A68BDF80E305B0013442D
:10A4F4001B884FF6FF7293420AD1019B5A68BDF83C
:10A504000E305B001344BDF802201A8000230BE0D8
:10A51400BDF80E300133ADF80E30019B1B88BDF839
:10A524000E209A42DED30423184604B0704784B048
:10A5340001900023ADF80E3011E0019B5A68BDF87C
:10A544000E305B0013441B884FF6FF72934201D018
:10A5540001230BE0BDF80E300133ADF80E30019B42
:10A564001B88BDF80E209A42E7D30023184604B096
:10A574007047000000B589B0039002911346ADF80E
:10A58400063000230693039B002B01D10E2389E0A0
:10A59400029B002B01D10E2384E00398FFF794FE65
:10A5A400BDF8063019460398FFF76CFF0346ADF873
:10A5B4001E30029B1B78052B05D8039B1B88BDF816
:10A5C4001E209A4201D107236CE0039B9968BDF8D1
:10A5D4001E2013469B0013449B000B44184607F0AF
:10A5E400CDF80346002B0ED0BDF80630194602986C
:10A5F400FFF7B4FE03468DF817309DF81730002B93
:10A6040001D0069B4EE0029B1B781A46274B53F859
:10A614002230002B18D0039B1B69002B01D10E2381
:10A6240040E0029B1B781A46204B53F82230039AD1
:10A6340012690299104698470690069B0493049B5E
:10A64400002B01D0049B2DE0039B9968BDF81E20CC
:10A6540013469B0013449B000B440299184606F0D2
:10A664003BFF0690069B002B0CD0029B1B781A46DE
:10A674000E4B53F82230002B04D0029B5B68184623
:10A6840006F0F6FB039B9968BDF81E2013469B0059
:10A6940013449B000B44BDF8062011461846FFF7EF
:10A6A40049FD069B184609B05DF804FB6C4B03009A
:10A6B40000B587B001900B46ADF802300023059336
:10A6C400019B002B01D10E232FE00198FFF7FCFD25
:10A6D400BDF8023019460198FFF7D4FE0346ADF8E1
:10A6E4001230019B1B88BDF812209A421CD101989C
:10A6F400FFF71DFF034683F00103DBB2002B05D0F7
:10A70400019B1B69184606F051FB0590BDF8023009
:10A7140019460198FFF7DDFE0590059B0393039B03
:10A72400002B01D0039B00E0059B184607B05DF8A1
:10A7340004FB00B587B001900091009B0493019B3A
:10A74400002B5AD0049B002B57D0019B1B88112B44
:10A7540004D1019B9B88ADF8163018E0019B1B883F
:10A764002F2B08D9019B1B884F2B04D8019B9B8856
:10A77400ADF816300BE0019B1B884F2B3FD9019B92
:10A784001B886F2B3BD8019B9B88ADF81630BDF816
:10A79400163019460498FFF775FE0346ADF80E30DF
:10A7A400049B1A88BDF80E309A422AD0019B1B885C
:10A7B400112B11D1049B5A68BDF80E305B00134471
:10A7C4004FF6FF721A80049BDB680DF10E021146EE
:10A7D400184606F081FE15E0049B9A68BDF80E3019
:10A7E40019460B469B000B449B001344BDF81620EE
:10A7F40011461846FFF79EFC04E000BF02E000BFCC
:10A8040000E000BF07B05DF804FB8ADF704700BFBB
:10A8140018468BDF704700BF18468CDF704700BFB7
:10A82400184600B58DB001900091009B0233099346
:10A83400019B14330893019B0A330B93019B9B7C6C
:10A844008DF82B30019B1B7A83F00103DBB2002BC4
:10A8540021D100F040FA02AB14220021184609F07D
:10A8640013FD9DF82B300B9A08990998FFF7D5FF33
:10A87400079005238DF80830079B0393079B002B53
:10A884000AD0019B5B6A002B06D0019B5B6A02AA7B
:10A894001046984700E000BF0DB05DF804FB00B51A
:10A8A40087B001900091009B0493009B9B798DF8E5
:10A8B4000F30009B1B798DF80E3000238DF8163075
:10A8C400019B9B8BADF80C3000238DF8173024E0EE
:10A8D400019B98699DF817309B00049A1A44BDF8AF
:10A8E4000C301946FEF7BFF80346002B0CD09DF838
:10A8F400163001338DF816309DF80F3083F00103C4
:10A90400DBB2002B04D010E09DF80F30002B0BD1EC
:10A914009DF8173001338DF817309DF817209DF8F6
:10A924000E309A42D4D300E000BF9DF80F30002BC4
:10A9340005D09DF816209DF80E309A420AD09DF855
:10A944000F3083F00103DBB2002B05D09DF81630E5
:10A95400002B01D0012300E00023184607B05DF866
:10A9640004FB86B001900091019B0493019B043386
:10A974000393039B1B78002B01D0042325E00023C1
:10A984008DF8173010E09DF817309B00049A13449B
:10A994001A88009B1B889A4201D1002315E09DF878
:10A9A400173001338DF817309DF81730002BEAD09B
:10A9B400039B1B785A1CD1B2039A11709B00049A12
:10A9C4001A44009B1B6813600023184606B07047A6
:10A9D40000B587B003900B4601928DF80B30039BB2
:10A9E400002B01D10E2311E0019B002B01D10E237A
:10A9F4000CE09DF80B30032B07D1019B05930599BF
:10AA04000398FFF7AEFF034600E00723184607B09C
:10AA14005DF804FB00B585B001900B468DF803305A
:10AA240013468DF80230019B002B01D10E233BE02D
:10AA34009DF8033003F00203002B19D19DF8033075
:10AA440003F00103002B13D19DF8033003F004033A
:10AA5400002B0DD19DF8033003F01003002B07D118
:10AA64009DF8033003F00803002B01D107231BE0FA
:10AA7400019800F01FF80390039B002B04D00C49AD
:10AA840040F2AF20FBF7BCFC019B02939DF803301E
:10AA940003F00403002B02D0029B01225A71029B93
:10AAA4009DF802209A710023184605B05DF804FB56
:10AAB400904B030084B00190019B002B01D10E2325
:10AAC40006E0019B05330393039B00221A700023C5
:10AAD400184604B0704700B58BB001900091002374
:10AAE4008DF8273000238DF8263003AB1422002183
:10AAF400184609F0C9FB019B14330793019800F031
:10AB04007FF80346002B14D002238DF80C30009BF1
:10AB14000493019B5B6A03AA10469847019B483340
:10AB240019460020FFF771FE00990198FFF779FE9E
:10AB340063E0019B9B798DF8243000238DF8253048
:10AB4400019B5B798DF823309DF82330002B19D0BD
:10AB54009DF8273001338DF8273001990098FFF7CD
:10AB64009EFE0346002B0DD09DF8263001338DF850
:10AB740026309DF8143043F004038DF8143001237B
:10AB84008DF82530009B04939DF82430002B0DD0C4
:10AB94009DF826209DF827309A4207D100238DF88E
:10ABA4000C3000990198FFF73CFE17E09DF8243023
:10ABB40083F00103DBB2002B0BD09DF82530002B72
:10ABC40007D000238DF80C3000990198FFF729FE77
:10ABD40004E003238DF80C30009B0493019B5B6A13
:10ABE400002B04D0019B5B6A03AA10469847019B83
:10ABF400483319460020FFF708FE0BB05DF804FB4C
:10AC040082B00190019B1B7D03F01803DBB2082B7B
:10AC140006D0019B1B7D03F01803DBB2182B01D176
:10AC2400012300E00023184602B0704782B001906F
:10AC3400019A137D43F004031375019BA022DA8269
:10AC4400019B50221A83019B00225A83019A137D8F
:10AC540023F018031375019B01225A7500BF02B03B
:10AC6400704782B00190019B4FF4C8721A82019B15
:10AC740006225A81019B18229A81019B0022DA81C3
:10AC840000BF02B0704700B589B001900091009BED
:10AC94000433079302AB14220021184609F0F4FA96
:10ACA400079B1B78012B12D1019B5B6A002B0ED0F2
:10ACB40004238DF80830019B14330693079B1B78FB
:10ACC4008DF80C30019B5B6A02AA1046984700BFBE
:10ACD40009B05DF804FB08B5FFF79BFD00BF08BD94
:10ACE40010B584B0039002910192039B002B01D113
:10ACF4000E234AE0039B019A5A62039B0822002117
:10AD0400184609F0C1FA029B002B2BD0029B1A793A
:10AD1400039B1A72029B1A7B039B9A74029B1B6807
:10AD2400002B0BD0029B1A68039B14331446206833
:10AD34006168A26807C3A2891A8002E00398FFF73A
:10AD440075FF029B9B68002B08D0029B9A68039BAB
:10AD54000A331168526819605A600CE00398FFF7CF
:10AD640080FF08E00398FFF761FF0398FFF779FF7E
:10AD7400039B00221A72039B03F12802039B9A642B
:10AD8400039B1F22A3F84C200023184604B010BDD7
:10AD940000B589B00190019B002B01D10E2338E04E
:10ADA40002AB14220021184609F06EFAFFF793FF54
:10ADB4000198FFF725FF0346002B0BD0019B5B6A2C
:10ADC400002B07D001238DF80830019B5B6A02AA8F
:10ADD40010469847019B03F11402019B483319461E
:10ADE4001046FFF712FD0790079B082B10D0079B16
:10ADF400002B0DD0094A0A4BD31ADB081B0443F07D
:10AE04000103079A0749184607F0BCFA079B00E0BC
:10AE14000023184609B05DF804FB00BF3844030062
:10AE2400E8430300E84B030000B589B001900091AA
:10AE340003AB14220021184609F026FA06238DF8E4
:10AE44000C30009B04330493009B1B88ADF8143032
:10AE5400019B14330793019B5B6A002B04D0019B75
:10AE64005B6A03AA1046984700BF09B05DF804FB6B
:10AE740000B587B001900091009B0593019B0833B6
:10AE84000493019B04330393019B1B881D2B06D061
:10AE94001D2B13DC102B0CD01B2B05D00EE00499BA
:10AEA4000598FFF718FE0AE003990598FFF7EBFEF3
:10AEB40005E003990598FFF7B7FF00E000BF00BF66
:10AEC40007B05DF804FB62DF704700BF184600B5A9
:10AED40087B0039002911346ADF80630029B0593A8
:10AEE400059B1B69002B03D0059B1B69039898479E
:10AEF40000BF07B05DF804FB00B58BB00190009172
:10AF040003AB14220021184609F0BEF9009B0E334E
:10AF14000893009B1B78002B57D1009B9B88012B27
:10AF240053D1009B9A79019B1B789A424DD10023FF
:10AF3400099333E0099A1346DB0013445B001A4675
:10AF4400089B13441B88022B02D0032B0CD022E055
:10AF5400099A1346DB0013445B001A46089B13440A
:10AF64001B89ADF81E3016E0099A1346DB00134422
:10AF74005B001A46089B13441B89ADF81A30099AE2
:10AF84001346DB0013445B001A46089B13445B8999
:10AF9400ADF81C3000BF099B01330993009B1B7A59
:10AFA4001A46099B9342C5D3019BDB68002B0CD046
:10AFB400009B5B88ADF80E3000238DF80C30019BAC
:10AFC400DB6803AA11460198984700BF0BB05DF8EF
:10AFD40004FB00B589B001900091019B9B88002B74
:10AFE40019D0009B5A89019B9B889A4213D1019BDB
:10AFF400DB68002B0FD001238DF80C30009B10333D
:10B004000593009BDB89ADF81830019BDB6803AA2C
:10B0140011460198984700BF09B05DF804FB000091
:10B0240010B58AB001900091234B03AC0FCB84E898
:10B034000F00019B002B01D10E233AE0009B002B53
:10B0440001D10E2335E0009B9B68002B01D10E2318
:10B054002FE0019A03AB11461846FFF734FF09901D
:10B06400099B0893089B002B01D0089B21E0019BBE
:10B074001B788DF81E300123ADF81C30019B4FF670
:10B08400FF725A80009B1A68019BDA60009B5A6821
:10B09400019B1A61019B00229A80019B00221A8164
:10B0A400009B9A68019B5A6107AB1846FEF75AFB4E
:10B0B400034618460AB010BD184C030000B589B009
:10B0C40001900091009B0793079B002B31D0019BBB
:10B0D400002B2ED0079B5B884FF6FF7293422AD039
:10B0E400079B5A88019B9B889A4224D1019B1B8809
:10B0F400112B06D0392B20D101990798FFF769FF4E
:10B104001EE0019B9A88079B5B889A4217D1079B94
:10B11400DB68002B13D002238DF80830079B4FF611
:10B12400FF725A80079BDB6802AA1146079898476A
:10B1340005E000BF04E000BF02E000BF00E000BF84
:10B1440009B05DF804FB000000B58DB001900B461A
:10B154008DF803309DF80330ADF82E3003AB202278
:10B164000021184609F090F8BDF82E30DBB28DF8B6
:10B174000830BDF82E301B0A9BB2DBB28DF80930C3
:10B1840001238DF80C30114B0593019B0693019B11
:10B19400DB88ADF81E300223ADF822300023ADF871
:10B1A400203002AB099301238DF81C3001238DF864
:10B1B4001D30019B5869019B5A8803AB1946FFF760
:10B1C400D9F9034618460DB05DF804FBD3AE02006E
:10B1D40000B583B00190019B002B01D10E2310E038
:10B1E400019B5B884FF6FF72934203D0019BDB887F
:10B1F400002B01D1082304E001210198FFF7A4FFEB
:10B204000346184603B05DF804FB000000B58DB09A
:10B21400039002911346ADF80630039B002B01D135
:10B224000E234CE004AB20220021184609F02CF830
:10B23400BDF80630F42B0CD9234A244BD31ADB086F
:10B244001B0443F002032249184607F08DF8072334
:10B2540035E0039B5B884FF6FF7293420CD11A4A88
:10B264001A4BD31ADB081B0443F00203194918468E
:10B2740007F07AF8082322E001238DF81030164BEA
:10B284000693039B0793039B1B89ADF82230BDF8FB
:10B294000630ADF826300023ADF82430029B0A9323
:10B2A40002238DF8203001238DF82130039B586947
:10B2B400039B5A8804AB1946FFF75CF9034618460A
:10B2C4000DB05DF804FB00BF30440300E843030005
:10B2D400284C03003C4C0300D3AE020000B585B0FB
:10B2E40003900B460192ADF80A30039B002B01D169
:10B2F4000E231BE0039BBDF80A205A80019B002B00
:10B304000BD0019B5A88039BDA80019B1A88039B0C
:10B314009A80019B9A88039B1A81039B5B69BDF801
:10B324000A2011461846FFF7C3F90346184605B02C
:10B334005DF804FB82B003468DF807309DF90730B1
:10B34400002B13DB9DF8073003F01F0209499DF918
:10B3540007305B09012000FA02F2203341F8232070
:10B36400BFF34F8F00BFBFF36F8F00BF00BF02B0AA
:10B37400704700BF00E100E0044BD3F80034002B19
:10B3840014BF01230023DBB21846704700000140BC
:10B3940008B507F0A1FF034683F00103DBB2002BDD
:10B3A40003D109497B20FBF72BF8FFF7E5FF0346A0
:10B3B40083F00103DBB2002B04D000F041FB034B0C
:10B3C40000229A7000BF08BD604C03007436002050
:10B3D40000B583B000230193184B1B78002B02D0D7
:10B3E400852301931CE0154B00229A60134B002225
:10B3F4005A60124B00221A61104B0022DA60104886
:10B4040000F0E4FA019007F067FF034683F00103BC
:10B41400DBB2002B01D000F0FFFA084B01221A70B6
:10B42400FFF7AAFF0346002B02D0044B01229A70B7
:10B43400019B184603B05DF804FB00BF743600207E
:10B444001DB5020084B00190019B1B680393039B0C
:10B45400002B03D0039B1A68019B1A60039B1846B8
:10B4640004B0704700B583B0164B1B78002B04D191
:10B47400154940F21710FAF7C3FF124BDB68002B93
:10B4840004D111494FF48C70FAF7BAFF00238DF8F8
:10B4940007300DF10703184604F0E0F9094BDB68A7
:10B4A400013B084AD360074BDB68002B01D1FFF74F
:10B4B4006FFF9DF80730184604F0E6F900BF03B0AB
:10B4C4005DF804FB74360020604C030000B585B0C1
:10B4D40003468DF807309DF80730002B02D10C4B42
:10B4E400039301E00B4B03930398FFF7ABFF029028
:10B4F400029B002B06D0029B5B689DF80720104638
:10B504009847F1E700BF00BF05B05DF804FB00BF3A
:10B514007C3600208436002000B583B003468DF8C5
:10B5240007309DF80730002B05D10A4B01225A70D1
:10B534000020FFF7CBFF9DF80730012B05D1054B09
:10B5440001229A700120FFF7C1FF00BF03B05DF82C
:10B5540004FB00BF7436002000B583B00190009155
:10B56400019B002B05D1054B01225A700020FFF7E7
:10B57400ADFF00BF03B05DF804FB00BF74360020CC
:10B5840000B585B0034600918DF807309DF807306B
:10B59400032B29D0032B35DC002B02D0012B04D044
:10B5A40030E00020FFF7C6FE2DE000238DF80F30B9
:10B5B4000DF10F03184604F051F9154B1B7883F075
:10B5C4000103DBB2002B01D0FFF702FF104BDB6855
:10B5D40001330F4AD3600E4B01229A709DF80F304D
:10B5E400184604F051F90EE0094B1B78002B04D1E6
:10B5F400084940F25220FAF703FF00F00DFAFFF772
:10B6040031FF00E000BF00BF05B05DF804FB00BFE0
:10B6140074360020604C030000B589B0019000919D
:10B62400009B0793019B1B788DF80C30019B5B6892
:10B634000493019B9B68DBB28DF81430019BDB689B
:10B644000693074A079B52F823300649079A51F894
:10B65400221003AA1046984700BF09B05DF804FB06
:10B66400883600208C36002000B589B00190009106
:10B67400009B0793019B1B788DF80C30019B5B6842
:10B684000493019B9B68DBB28DF81430019BDB684B
:10B694000693074A079B52F823300649079A51F844
:10B6A400221003AA1046984700BF09B05DF804FBB6
:10B6B400883600208C36002030B58FB0039002917C
:10B6C4000192039B1B780C9326490C9B019A41F829
:10B6D4002320029B1A6924490C9B41F82320029BD6
:10B6E4005B7F1946214A0C9B13440A461A70029B3D
:10B6F40004AC1D460FCD0FC495E80F0084E80F007D
:10B704000C9B089300230D93039B1B781A46174B3D
:10B714009B5C002B0DD0039B181D019B002B01D0BB
:10B72400134A00E0002204AB194602F0F1F90D902F
:10B7340014E0039B1B781A460C4B9B5C002B0DD129
:10B74400039B03F10C00019B002B01D0094A00E08C
:10B75400002204AB194601F037FB0D900D9B1846EF
:10B764000FB030BD883600208C3600209036002083
:10B774001DB602006DB6020082B003468DF8073094
:10B784009DF90730002B0CDB9DF8073003F01F02F6
:10B7940005499DF907305B09012000FA02F241F8DE
:10B7A400232000BF02B0704700E100E082B00346EE
:10B7B40000918DF807309DF90730002B0ADB009BC0
:10B7C400DAB20C499DF907305201D2B20B4483F826
:10B7D40000230BE0009BDAB207499DF8073003F021
:10B7E4000F03043B5201D2B20B441A7600BF02B0DD
:10B7F400704700BF00E100E000ED00E082B001907E
:10B80400019B1B0B5BB2184602B0704700B583B0B6
:10B8140003460A468DF8073013468DF806309DF826
:10B824000630012B03D99DF80630032B0BD99DF864
:10B834000630042B03D99DF80630072B03D9084999
:10B844006B20FAF7DDFD9DF806209DF907301146BF
:10B854001846FFF7ABFF00BF03B05DF804FB00BF61
:10B86400B44C030000B583B003468DF807309DF94E
:10B8740007301846FFF780FF00BF03B05DF804FBF4
:10B8840082B003468DF807300F4A9DF90730002B2C
:10B8940000DA1F335B115BB252F823209DF90730A5
:10B8A400594203F01F0301F01F0158BF4B425BB222
:10B8B40022FA03F303F00103002B14BF0123002336
:10B8C400DBB2184602B0704700E100E082B001909C
:10B8D4004FF08042019BC2F8083300BF02B07047AA
:10B8E40082B003468DF807309DF8073003F180439A
:10B8F40001221A6000BF02B0704784B00346ADF85D
:10B904000630BDF8063003F1804300221A60BDF80A
:10B91400063003F180431B680393039B00BF04B00C
:10B92400704782B00346ADF80630BDF8063003F127
:10B9340080431B68002B14BF01230023DBB218468D
:10B9440002B0704782B001904FF08042019BC2F870
:10B95400183500BF02B070474FF08043D3F8183455
:10B964001B0C03F00103002B14BF01230023DBB2E3
:10B974001846704700B583B006238DF807304FF0A2
:10B984008040FFF73BFF03461846FFF779FF034665
:10B9940083F00103DBB2002B13D04FF08040FFF79C
:10B9A4002DFF03461A469DF8073019461046FFF747
:10B9B4002DFF4FF08040FFF721FF03461846FFF7A5
:10B9C40051FF00BF03B05DF804FB000000B585B073
:10B9D4000190019B002B03D10D49A420FAF710FD1F
:10B9E400002303930B4B1B79002B02D08523039375
:10B9F40008E0084A019B1360064B01221A71054BAB
:10BA040000225A71039B184605B05DF804FB00BF81
:10BA1400EC4C03009436002008B5074B1B79002B2F
:10BA240003D10649BD20FAF7EBFCFFF7A3FF012081
:10BA3400FFF788FF00BF08BD94360020EC4C0300DC
:10BA440008B50D4B1B79002B03D10C49F720FAF7ED
:10BA5400D7FC0220FFF73AFF4FF48270FFF74DFF47
:10BA64000C20FFF73DFF00BFFFF776FF0346002BD6
:10BA7400FAD100BF00BF08BD94360020EC4C03008F
:10BA840008B54FF48070FFF74CFF0346002B14D029
:10BA94004FF48070FFF731FF0120FFF717FF114BC0
:10BAA4005B7983F00103DBB2002B06D00D4B01223E
:10BAB4005A710C4B1B68002098474FF48270FFF7B3
:10BAC40030FF0346002B0AD04FF48270FFF715FFB6
