:020000022000DC
:1060000000000120896302007163020073630200D3
:1060100075630200776302007963020000000000EC
:106020000000000000000000000000007B63020090
:106030007D630200000000007F63020081630200B4
:1060400091C4020083630200F5D102008363020061
:106050008363020083630200F1D0020083630200C5
:106060008363020083630200836302008363020090
:106070008363020083630200836302008363020080
:1060800083630200D59402008363020083630200ED
:106090008363020083630200C93703008363020045
:1060A0008363020083630200836302008363020050
:1060B0008363020083630200000000000000000010
:1060C0008363020083630200836302008363020030
:1060D0008363020083630200836302000000000008
:1060E00000000000000000000000000000000000B0
:1060F00000000000000000000000000000000000A0
:10610000000000000000000000000000000000008F
:10611000000000000000000000000000000000007F
:10612000000000000000000000000000000000006F
:10613000000000000000000000000000000000005F
:10614000000000000000000000000000000000004F
:10615000000000000000000000000000000000003F
:10616000000000000000000000000000000000002F
:10617000000000000000000000000000000000001F
:10618000000000000000000000000000000000000F
:1061900000000000000000000000000000000000FF
:1061A00000000000000000000000000000000000EF
:1061B00000000000000000000000000000000000DF
:1061C00000000000000000000000000000000000CF
:1061D00000000000000000000000000000000000BF
:1061E00000000000000000000000000000000000AF
:1061F000000000000000000000000000000000009F
:106200003A493B480A1A02D0072291438D46394940
:1062100039480A1A06D00722914381F309880222DD
:1062200082F3148835483649364A00F041F836483A
:106230003649374A00F03CF836483749374A00F0CB
:1062400037F837483749384A00F032F83748384984
:10625000384A00F02DF838483849394A00F028F813
:1062600038483949394A00F023F839483949002279
:1062700000F036F838483949002200F031F8384843
:106280003849091A0DF0FDFD374A9047254826493F
:10629000884205D00268043003B4904703BCF7E796
:1062A00000208646EC4600200021304A9047FEE759
:1062B000884214D0521A12D003460B4313430324CE
:1062C000234206D1036804300B600431043AF9D14B
:1062D0007047037801300B700131013AF9D17047F2
:1062E000884202D002700130FAE7704700000120B6
:1062F00000E0002000000120000001208462030073
:106300001852002010590020E4630200E4630200E8
:10631000AA40030084620300185200201852002093
:106320000C4203000C4203000C4203000C42030029
:106330000C4203000C4203000C4203000C42030019
:10634000816203007C69030010590020105900206D
:1063500010590020B46B0020B46B0020B46B0020F7
:10636000B46B0020B48B0020B1630200F103030082
:10637000FEE7FEE7FEE7FEE7FEE7FEE7FEE7FEE7F5
:10638000FEE7FEE700F002B8FFF7FCBF0F484FF052
:106390000701884385460E4880470E48016841F44E
:1063A00070010160BFF34F8FBFF36F8FFFF728BFFE
:1063B00009480A490A4A884207D0521A05D0037888
:1063C00001300B700131013AF9D170470000012012
:1063D00085B5020088ED00E00C4203001852002051
:0463E000185200202F
:1063E40000B585B00190019B002B0AD0074B43F008
:1063F40001030393019B9B010293039B029898471B
:1064040000E000BF05B05DF804FB00BF20420300BC
:1064140000B583B00190019B002B0AD04FF47A7031
:10642400FFF7DEFF019B013B0193019B002BF5D19C
:1064340000E000BF03B05DF804FB08B50AF082F980
:1064440000BF08BD00B589B0039002910192019B81
:10645400002B33D00023079303230693029A079B50
:106464001344019A194600200AF0F6F80590079A99
:10647400059B13440793019A059BD31A0193059B2B
:10648400002B13D10F4B1B7883F00103DBB2002BDD
:1064940013D10120FFF7BCFF069B013B0693069B2B
:1064A400002B03D1074B00221A7007E0054B012291
:1064B4001A70019B002BD1D100E000BF00BF09B0CE
:1064C4005DF804FB1059002000B585B003900291DB
:1064D400054B00934023054A0299039800F012F8F3
:1064E40000BF05B05DF804FB4964020014590020A4
:1064F40082B0019000BF02B0704782B0019000BF2B
:1065040002B0704700B5A1B00590049103920293C4
:10651400049803F005FF039B1593029B1693002335
:10652400179300238DF8603000231993229B1A934C
:1065340000231F930FA91F9B0822049803F0CAFF8E
:1065440008231F93119B1293BDF84030ADF84C30D3
:10655400BDF84230ADF84E3000238DF851309DF82F
:106564003C3003F00303DBB2012B26D10F9BC3F3B2
:1065740095231C939DF83C30C3F3C203DBB28DF822
:106584005030BDF83C30C3F38313DBB21B931B9B29
:106594009A0009A91F9B049803F09CFF1B9B9B0076
:1065A4001F9A13441F9312AA09A915AB009313460B
:1065B4001B9A1C9800F0FEFE2FE09DF83C3003F07F
:1065C4000303DBB2022B28D1BDF83E30C3F3891399
:1065D4009BB21E939DF83C30C3F3C203DBB28DF82B
:1065E40050301E9B082B28BF08231D9307A91F9B0F
:1065F4001D9A049803F06EFF1F9A1D9B13441F936A
:106604001E9A1D9BD31A1E9315AB12AA07A81D9997
:1066140000F072FF1E9B002BE3D1049803F08FFE61
:1066240000BF21B05DF804FB82B00190019BDB68E0
:1066340001225A7100BF02B07047000000B583B058
:106644004FF0FF330193FFF7F8FE0421084800F0F0
:10665400CDFD0190019B002B03DA0649412009F08E
:1066640097F80348FFF7E0FF00BF03B05DF804FBB1
:10667400FC4103003842030000B583B0019000914F
:10668400019B1B681B6800990198984700BF03B0E1
:106694005DF804FB00B583B00190019B1B685B6847
:1066A4000198984700BF03B05DF804FB00B583B0C0
:1066B4000190019B1B689B680198984700BF03B039
:1066C4005DF804FB82B001900B468DF80330019B0A
:1066D400DB689DF803201A7100BF02B0704782B0D6
:1066E4000190019BDB681B79184602B0704782B0A9
:1066F4000190019BDB6801225A7100BF02B0704710
:1067040082B00190019BDB685B79184602B0704748
:1067140000B585B0019000910C4B00221A700C4812
:1067240003F062FD0390039B002B01D0039B08E060
:10673400084804F061FA084A084BD31ADB080293AC
:106744000023184605B05DF804FB00BFBC5A0020C6
:10675400504103009C42030050410300B840030031
:10676400024A034BD31ADB08184670475041030012
:10677400B840030000B587B001900B468DF8033094
:106784009DF80330002B1FD0FFF7EAFF049000238D
:10679400059313E0059B9B000E4A13440393039B4C
:1067A4001B881A46019B1B689A4204D1019B059AD7
:1067B4001A60002309E0059B01330593059A049BA5
:1067C4009A42E7D3052300E00023184607B05DF89A
:1067D40004FB00BF1852002000B585B001900B46A1
:1067E4008DF803309DF8032001AB11461846FFF7DE
:1067F400C1FF0346002B07D1019BDB00054A13446C
:106804000393039B1B6800E00023184605B05DF862
:1068140004FB00BFB840030084B001900B468DF820
:106824000330019BDB00174A134402939DF80330A5
:10683400013B032B1CD801A252F823F0516802003B
:1068440059680200616802006B68020002238DF837
:106854000F3011E004238DF80F300DE0029B1B79FB
:106864008DF80F3008E0029B5B798DF80F3003E060
:1068740000238DF80F3000BF9DF80F30184604B088
:10688400704700BFB840030084B00190009100231A
:106894008DF80F30019B1B7803F00403DBB2002B4F
:1068A40024D0019B1B78C3F30103DBB2012B02D07C
:1068B400022B0CD017E0009B1B68019A1288C2F3CC
:1068C4008312D2B213449A1C009B1A600BE0009B03
:1068D4001B68019A5288C2F3891292B213449A1C1B
:1068E400009B1A6000BF01238DF80F309DF80F3014
:1068F400184604B07047000000B58BB00023ADF813
:1069040026303E4802F083FF3D4802F080FF3D4BB5
:106914009B6804933C4B1B680693049A069B1340A4
:1069240002339B00374A13440433089304AB1946DB
:106934000898FFF7A9FF0346002B09D0049A069B89
:10694400134002339B002F4A134404330893EDE7AA
:1069540000BF0023079311E0049B5A1C0492069A7B
:106964001340079A920001A90A44264902339B0066
:106974000B445B681360079B01330793079B012B50
:10698400EAD99DF80430C3F30103DBB2012B10D024
:10699400022B1CD1BDF80A30ADF82630BDF8063004
:1069A400C3F389139BB203339A08049B13440493DF
:1069B40013E0BDF80A30ADF82630BDF80430C3F357
:1069C4008313DBB21A46049B1344049305E00F4976
:1069D4004FF4C27008F0DCFE00BF094802F023FF48
:1069E4000590059B002B02D0049B064A9360BDF8DA
:1069F400263018460BB05DF804FB00BFD45E0020BF
:106A0400D05E0020BC5A002020520020AC4203007B
:106A140000B585B00021074802F06AFE0390039B8D
:106A24000293029B83F310030193019B184605B064
:106A34005DF804FBD85E002000B589B00390029194
:106A440001920093039B1B0C0793FFF7E1FF069051
:106A5400FFF786FE0246079B934204D3214940F286
:106A6400A91008F095FE069B1904009B5A1C0A9B6A
:106A74001340079A0A431C4902339B000B445A6093
:106A8400009A0A9B134002339B00174A13440433B1
:106A94000593039B03F00703D9B2059A137861F3B6
:106AA400C5031370019B03F00F03D9B2059A138831
:106AB40061F389131380029BC3F31501059A1368CC
:106AC40061F39F231360059A1378012161F3010395
:106AD4001370059A137823F00403137000BF09B0F0
:106AE4005DF804FBAC420300BC5A002000BF7047B1
:106AF40000B58DB00390029113468DF80730039BC7
:106B040002330A9301238DF8273000238DF81B30BC
:106B14000DF11B03184602F0AFF8404B5A68029B74
:106B24001A603F4B1A683D4B99683C4B5B68CB1A23
:106B3400134401330B9314E001213A4802F037FE69
:106B4400FFF7DAFE07900799364802F030FE344B1F
:106B54001A68324B9968314B5B68CB1A1344013382
:106B64000B930A9A0B9B9A42E6D89DF82730002B88
:106B740048D0002305939DF80730002B17D09DF8CB
:106B84001430012262F301038DF814309DF814309F
:106B940043F004038DF81430039B03F00F03DAB2BF
:106BA400BDF8143062F38913ADF8143016E09DF883
:106BB4001430022262F301038DF814309DF814306E
:106BC40043F004038DF81430039BC3F309039AB212
:106BD400BDF8163062F38F13ADF816300F4B5A68B8
:106BE4000F4B1B68134002339B000C4A13440433BD
:106BF4000893059A089B1A60084B5A680A9B134429
:106C0400064A53609DF81B30184602F04BF89DF875
:106C1400273018460DB05DF804FB00BFBC5A0020B5
:106C240020520020D85E002000B58BB0059004915E
:106C3400039202931F4B1B68079306AB012219466C
:106C44000298FFF755FF0346002B24D0069B02331E
:106C540009930023089311E0089B9B00039A1A44AC
:106C6400099B591C099107990B4012681249023378
:106C74009B000B445A60089B01330893089A029BBB
:106C84009A42E9D3069A079B00931346029A049901
:106C94000598FFF7D1FE084B1B78002B04D000F0B9
:106CA4009BF80346002BFAD1FFF720FF00BF0BB07F
:106CB4005DF804FB20520020BC5A002000B583B0CC
:106CC400019000910023002200990198FFF7ACFF86
:106CD40000BF03B05DF804FB00B587B003900291D8
:106CE4000192019B059305AA012302990398FFF7DA
:106CF4009BFF00BF07B05DF804FB00B587B00390AD
:106D0400029101920093019B0493009B059304AAB2
:106D1400022302990398FFF787FF00BF07B05DF8CD
:106D240004FB00B589B00390029101920093019B8A
:106D34000593009B06930A9B079305AA03230299D4
:106D44000398FFF771FF00BF09B05DF804FB00B5BD
:106D54008BB00390029101920093019B0593009BD9
:106D640006930C9B07930D9B08930E9B099305AA0E
:106D7400052302990398FFF757FF00BF0BB05DF896
:106D840004FB00B58BB00390029101920093019B28
:106D94000493009B05930C9B06930D9B07930E9BFA
:106DA40008930F9B099304AA062302990398FFF7FB
:106DB4003BFF00BF0BB05DF804FB0000054B9A6875
:106DC400044B5B689A420CBF01230023DBB21846D4
:106DD400704700BFBC5A002000B599B0FFF7EEFF22
:106DE4000346002B01D00023C0E19B4B0022C3F8D3
:106DF4001824BFF34F8F00BF974B9B680493974BA6
:106E04001B681093049A109B134002339B00924A10
:106E14001344043311930023179300231693002380
:106E24000F9304AB19461198FFF72EFD0346002B70
:106E340019D0894BD3F81834002B14D1864B5A68D7
:106E4400049B9A4205D8844B5B68834A9360002371
:106E54008CE1049A109B134002339B007E4A134436
:106E640004331193DDE70023159311E0049B5A1CAE
:106E74000492109A1340159A920001A90A44764983
:106E840002339B000B445B681360159B013315931D
:106E9400159B012BEAD99DF8043003F00303DBB200
:106EA400022B40F09C80BDF80630C3F389139BB2DB
:106EB4000D93BDF80630C3F389139BB2502B28BF42
:106EC40050239BB20C930C9BC3F309039AB2BDF8F5
:106ED400063062F38F13ADF806300C9B08330B9326
:106EE4009DF80430C3F3C203DBB20F930B995C48E3
:106EF40003F085F91790179B002B00F0D3801798A7
:106F040003F00EFA01A9169B0822179803F0C4FA9D
:106F1400169B08331693049BDA43109B13400133EA
:106F24009B000A930C9A0A9B9A4242D90A9B002B13
:106F340008D0049A109B134002339B00464A134422
:106F4400043300E0474B08930A9B002B02D00A9BB2
:106F5400DBB201E00C9BDBB28DF81F300A9B002BE7
:106F640001D0404B00E0002306930A9B002B06D07F
:106F74000C9BDAB20A9BDBB2D31ADBB200E000232B
:106F84008DF817309DF81F20169B0899179803F069
:106F940083FA9DF81F30169A13441693069B002B10
:106FA40016D09DF81720169B0699179803F074FACB
:106FB4000EE0049A109B134002339B00264A1344AC
:106FC40004330993169B0C9A0999179803F064FAF1
:106FD4000D9B03339A08049B1344049362E09DF8C9
:106FE400043003F00303DBB2012B5BD1BDF80430A2
:106FF400C3F38313DBB2062B28BF0623DAB2BDF832
:10700400043062F38913ADF80430BDF80430C3F3DF
:107014008313DBB202330E939DF80430C3F3C2032F
:10702400DBB20F930E9B9B0019460D4803F0E7F863
:107034001790179B002B35D0179803F071F901A90D
:10704400169B0822179803F027FA169B0833169309
:10705400002315931DE000BFBC5A002020520020DD
:1070640050410300C85A0020049B5A1C0492109AF1
:10707400134002339B003F4A1344191D169B0422FC
:10708400179803F009FA169B04331693159B0133E2
:107094001593BDF80430C3F38313DBB21A46159B72
:1070A4009342E1D3179B002B40D0324BD3F81034DA
:1070B4001493304BD3F81834002B1BD0179803F0DB
:1070C4003EF94DE000238DF84F301498FFF718FB7C
:1070D4000346002B02D001238DF84F309DF84F302A
:1070E400002B03D017991498FFF7C6FA149BDB689A
:1070F4001B681493149B002BE4D1179803F01FF919
:1071040000238DF803300DF10303184601F0B4FD9C
:10711400184BD3F81834002B02D1049B154A936002
:107124009DF80330184601F0BDFD19E0114BD3F86A
:107134001034129306E01298FFF7B8FA129BDB683A
:107144001B681293129B002BF5D10B4A0B4BD31ADD
:10715400DB081B0443F0020309491846FFF7AEFDA0
:10716400FFF72CFE034683F00103DBB2184619B087
:107174005DF804FBBC5A0020E0400300B840030063
:107184000843030000B585B00023039323E0164BA6
:10719400D3F81034029301238DF807300FE00298DE
:1071A400FFF79DFA03461A46039B934203D100233B
:1071B4008DF8073006E0029BDB681B680293029B94
:1071C400002BECD19DF80730002B01D0039B07E086
:1071D400039B01330393039B092BD8DD4FF0FF334B
:1071E400184605B05DF804FBBC5A002000B585B014
:1071F40001900B468DF80330FFF7C4FF0390039B07
:10720400B3F1FF3F01D1039B22E0039BDBB219469C
:107214000198FFF757FA104BD3F81034002B08D11C
:107224000D4A019BC2F81034019BDB6800221A60EE
:107234000DE0094BD3F81034DA68019BDB6812685F
:107244001A60054BD3F81034DB68019A1A60039B6B
:10725400184605B05DF804FBBC5A002000B583B0A5
:107264000C4BD3F8103401930A4B01221A7009E035
:107274000198FFF73CFA0198FFF70CFA019BDB68D1
:107284001B680193019B002BF2D100BF00BF03B028
:107294005DF804FBBC5A002082B00190009100BF4D
:1072A40002B0704710B584B003900291039BDB8851
:1072B400002B0AD0039BDB881A461F4B009313460E
:1072C4001E4A1F49029802F0EBFB039B1B7A052B15
:1072D4002ED0039B5B7A002B12D0039B9B881A460B
:1072E400039B1B7A19461046FFF796FA03461A4683
:1072F400144B53F822301A461349029802F0D0FB7B
:10730400039B1B6819460298FFF7C6FF039B1B7A71
:107314001A460E4B53F82240039B9B8800211846C3
:10732400FFF75AFA034622460949029802F0B8FBCD
:1073340000BF04B010BD00BF3C4303004C43030036
:1073440084430300385200209C430300245200204D
:10735400A043030000B585B00390029113468DF855
:107364000730039B1B7A052B0FD0039B5B7A002B02
:1073740006D00D4B1B681A460C49029802F090FB8C
:107384000B49029802F08CFB07E09DF80730002BB4
:1073940003D00749029802F083FB029802F05EFBD7
:1073A40000BF05B05DF804FB385200209C43030085
:1073B400AC43030030B58BB007900691059204935B
:1073C4000E9B1B7B8DF827300E9B00221A730E999F
:1073D4000498FFF767FF059B062B7FD801A252F89C
:1073E40023F000BF057402000F7402001F74020032
:1073F400337402005174020079740200A97402000B
:1074040007990E9802F04CFB69E0069B1B681A462C
:1074140007990E9802F044FB61E0069B1A68069BEC
:1074240004331B6807990E9802F03AFB57E0069B59
:107434001A68069B04331968069B08331B6800937B
:107444000B4607990E9802F02BFB48E0069B19683F
:10745400069B04331868069B08331B68069A0C3293
:1074640012680192009303460A4607990E9802F0A7
:1074740017FB34E0069B1868069B04331C68069BC4
:1074840008331B68069A0C32126806991031096891
:107494000291019200932346024607990E9802F046
:1074A400FFFA1CE0069B1C68069B04331D68069BC0
:1074B40008331B68069A0C32126806991031096861
:1074C40006981430006803900291019200932B46B1
:1074D400224607990E9802F0E3FA00E000BF00226A
:1074E4000E990498FFF736FF0E9B9DF827201A7318
:1074F40000BF0BB030BD00BF00B587B00390029150
:1075040001920093029B082B60D8009B1B7B8DF893
:107514001330009B00221A7300990198FFF7C2FEF2
:107524000023059314E0059A029B9A4209D2039A18
:10753400059B13441B781A462649009802F0B0FABA
:1075440003E02549009802F0ABFA059B013305934B
:10755400059B072BE7D92149009802F0A1FA0023E3
:10756400059326E0059A029B9A421BD2039A059B37
:1075740013441B788DF812309DF812307E2B0AD8F4
:107584009DF8123018460CF044FD0346002B02D03F
:107594009DF8123000E02E231A461149009802F09B
:1075A4007FFA03E00F49009802F07AFA059B013351
:1075B4000593059B072BD5D9012200990198FFF764
:1075C400C9FE009B9DF813201A7300E000BF07B0AA
:1075D4005DF804FBB0430300B8430300BC4303005D
:1075E400C0430300C443030084B003468DF807304E
:1075F4009DF807305B08DBB21A460D4B9B5C8DF897
:107604000F309DF8073003F00103002B04D09DF8E0
:107614000F301B09DBB204E09DF80F3003F00F03B9
:10762400DBB28DF80E309DF80E30184604B070476A
:10763400F05E002084B003460A468DF807301346F6
:107644008DF806309DF8073003F00103002B01D0BC
:107654000F2300E0F0238DF80F309DF8073003F07E
:107664000103002B04D09DF806301B01DBB201E0BE
:107674009DF806308DF80E309DF807305B08DBB2BC
:107684001A46114B9A5C9DF807305B08DBB2194629
:107694009DF80F301340DAB20B4B5A549DF8073063
:1076A4005B08DBB21A46084B9A5C9DF807305B080E
:1076B400DBB219469DF80E301343DAB2024B5A542A
:1076C40000BF04B0704700BFF05E002000B585B075
:1076D40003468DF807300023039310E00F4B1A681C
:1076E400039BDB0013440293029B1B789DF8072045
:1076F4009A4201D1029B0DE0039B01330393084B93
:107704001B781A46039B9342E8DB0649882008F05D
:107714003FF80023184605B05DF804FBDC5E00204A
:10772400E05E0020D443030000B585B003460A465A
:107734008DF8073013468DF806309DF8073018464B
:10774400FFF7C4FF0390039B002B0BD0039B5B68E4
:10775400002B07D0039B5B689DF806109DF807205B
:107764001046984700BF05B05DF804FB2DE9F04FC3
:1077740087B003460A468DF80F3013468DF80E3055
:107784009DF80F301846FFF72FFF0346042B00F235
:10779400C28001A252F823F0B177020025780200DA
:1077A4004178020071780200877802009DF80E305B
:1077B400002B00F0AD809DF80F3001211846FFF733
:1077C40039FF00238DF817300DF11703184601F027
:1077D40053FA9DF80F104FF001024FF00003A1F18E
:1077E4002004C1F1200003FA01F702FA04F427434C
:1077F40022FA00F0074302FA01F6494BD3E90023C9
:1078040046EA020100913B430193454BDDE9001236
:10781400C3E900129DF81730184601F043FA77E0E7
:107824009DF80E30002B01D0022200E000229DF8CA
:107834000F3011461846FFF7FDFE6CE09DF80E3040
:10784400002B0CD09DF80F3003211846FFF7F2FEF1
:107854009DF80F3001211846FFF766FF5BE09DF8A5
:107864000F3001211846FFF7E5FE54E09DF80E3075
:10787400002B4FD19DF80F3004211846FFF7DAFE94
:1078840048E09DF80E30002B06D09DF80F30032100
:107894001846FFF7CFFE3EE09DF80F300021184652
:1078A400FFF7C8FE9DF80F3000211846FFF73CFF94
:1078B40000238DF816300DF11603184601F0DCF99B
:1078C4009DF80F104FF001024FF00003A1F12006C4
:1078D400C1F1200003FA01F502FA06F6354322FA53
:1078E40000F0054302FA01F46FEA04086FEA05099F
:1078F4000B4BD3E9002308EA020A09EA030B084BFD
:10790400C3E900AB9DF81630184601F0CBF902E04C
:1079140000BF00E000BF00BF07B0BDE8F08F00BFAC
:10792400E85E002000B583B00648074B1B685B087F
:107934000022194600F058FE019000BF03B05DF824
:1079440004FB00BF60520020E45E002000B587B055
:1079540001900023059328E01C4B1A68059BDB006B
:1079640013440493049B1B78184605F00FFB03464D
:107974008DF80F30049B5B78012B0CBF012300238F
:10798400DBB21A469DF80F309A420CBF0123002344
:107994008DF80E30049B1B789DF80E201146184676
:1079A400FFF7E4FE059B01330593094B1B781A4648
:1079B400059B9342D0DB074BD3E90023134301D04B
:1079C400FFF7B0FF00BF07B05DF804FBDC5E0020EA
:1079D400E05E0020E85E002000B585B001900B4613
:1079E4008DF80330019BDBB21846FFF76FFE03905E
:1079F400039B1B78184605F0C9FA03468DF80B3033
:107A0400039B5B78012B0CBF01230023DBB21A46D6
:107A14009DF80B309A420CBF012300238DF80A30E5
:107A24009DF80A30002B06D0054BD3E900231343FD
:107A340001D1FFF777FF00BF05B05DF804FB00BF7D
:107A4400E85E002000B58BB003900B4601928DF8E0
:107A54000B30019B092B01D8072367E005F088F957
:107A6400034683F00103DBB2002B09D005F01CF9B7
:107A74000990099B0893089B002B01D0089B55E0B3
:107A84002C4A039B13602C4A9DF80B3013702B4A2D
:107A9400019B13601022002129480CF069FA29493E
:107AA4004FF000024FF00003C1E9002331E09DF8DC
:107AB4000B30DB00039A1344079303238DF814302F
:107AC40000238DF815309DF8163023F001038DF84E
:107AD40016309DF8163023F002038DF816309DF809
:107AE400163023F004038DF81630079B9B788DF82D
:107AF4001530079B1B78184605AB134A194605F049
:107B040043F90990099B0693069B002B01D0069B21
:107B14000CE09DF80B305A1E8DF80B20002BC6D1BB
:107B24000A4A00210A4800F025FD034618460BB016
:107B34005DF804FBDC5E0020E05E0020E45E0020D3
:107B4400F05E0020E85E0020DD7902005179020039
:107B54002C44030000B583B0114B1B68002B04D1E7
:107B6400104940F2351007F013FE002301930CE096
:107B74000B4B1A68019BDB0013441B780121184648
:107B840005F080F9019B01330193074B1B781A46DA
:107B9400019B9342ECD30023184603B05DF804FB29
:107BA400DC5E0020D4430300E05E002086B0039036
:107BB4000291019201238DF817309DF81730204A65
:107BC400039B13601E4A029B53601D4A019B9360F2
:107BD400039B44F20102934212D0039B44F202023B
:107BE400934220D1019B164AD360154BDB681B6876
:107BF400134A9361124BDB685B68114AD36112E04C
:107C0400019B0F4A13610E4B1B699B680C4A53611D
:107C14000B4B1B691B680A4A9361094B1B695B6820
:107C2400074AD36100BF72B600BF00BF9DF817308A
:107C3400DBB2002BFAD162B600BF00BF06B07047BA
:107C4400005F002000B583B002900091019244F2DD
:107C5400010071466A4600F003F803B000BD00BF9E
:107C640030B58BB007900691059272B600BFFFF74E
:107C7400F5FAFFF7B1F80346002BFAD1079B44F25B
:107C8400020293422FD0079B44F20202934269D826
:107C9400079B44F20102934237D0079B44F201024E
:107CA40093425FD8079B012B05D0079B41F2010249
:107CB40093420CD056E0394A394BD31ADB081B04E3
:107CC40043F0010337491846FEF7F8FF57E0334AFB
:107CD400334BD31ADB081B0443F001033249184623
:107CE400FEF7ECFF4BE0059B09932C4A2C4BD31A6F
:107CF400DB081B0443F00100099B5B681A46099BDF
:107D04001B682A49FEF7F9FF39E0059B0893234ACB
:107D1400234BD31ADB081B0443F00104089B9D6822
:107D2400089B9B68184603F087F803461846089B8F
:107D34005B681946089B1B68069A0292019300919E
:107D440003462A461A492046FFF701F8134A144B02
:107D5400D31ADB081B0443F0010316491846FEF747
:107D6400ADFF0CE00D4A0E4BD31ADB081B0443F0A5
:107D74000103069A10491846FEF7AEFF00BF0F4BE9
:107D84001B6803F00103002B00D000BE059A06997E
:107D94000798FFF70BFF00BF0BB030BDE0400300B6
:107DA400B84003003044030050440300744403000B
:107DB40090440300B8440300CC440300F0ED00E019
:107DC40084B00190019B9B680393019BDA68039B39
:107DD400D31A184604B0704782B001900B468DF850
:107DE4000330019B1A68019BDB68019989880B4069
:107DF40013449DF803201A70019BDB685A1C019BF5
:107E0400DA6000BF02B0704784B003900B46019261
:107E1400ADF80A30039B1A68039B9968BDF80A30D1
:107E24000B44039989880B4013441A78019B1A70F8
:107E340000BF04B0704700B583B001900091009A70
:107E440000210198FFF7E0FF019B9B685A1C019BEE
:107E54009A6000BF03B05DF804FB84B00390029104
:107E64001346ADF80630029B002B01D10E231DE012
:107E7400BDF80630002B07D0BDF806305A1EBDF8F9
:107E840006301340002B01D009230FE0039B029A14
:107E94001A60BDF80630013B9AB2039B9A80039B9B
:107EA40000229A60039B0022DA600023184604B083
:107EB400704700B583B001900B468DF803300198EC
:107EC400FFF77EFF0246019B9B889A4207D89DF8E4
:107ED400033019460198FFF77FFF002300E00423D5
:107EE400184603B05DF804FB00B583B0019000911F
:107EF4000198FFF765FF0346002B05D00099019810
:107F0400FFF799FF002300E00523184603B05DF84E
:107F140004FB00002DE9F04383B0144801F0BDFADE
:107F2400034600221C461546114BD3E9002314EBEB
:107F3400020845EB0309CDE900890E4BD3E9002380
:107F4400DDE90001904271EB030307D2DDE9002370
:107F540012F1807643F10007CDE90067DDE90023E3
:107F64001046194603B0BDE8F08300BF80520020DC
:107F7400285F0020305F002088B001900091019BB1
:107F84000793009B0693079BD3E90223CDE90423BF
:107F9400069BD3E90223CDE90223DDE90423DDE9CD
:107FA4000201904271EB03032CBF01230023DBB2D7
:107FB400184608B070470000F0B585B00190019BE9
:107FC4005B69002B03D14349A52007F0E1FB0023A3
:107FD4008DF80F30404B1B78002B75D0019B002B84
:107FE40072D0FFF797FF019BD3E90223904271EB14
:107FF400030358D300238DF80D300DF10D031846FB
:1080040000F03AFE019B1B69002B06D101994FF049
:10801400FF324FF0FF33C1E902239DF80D301846BB
:1080240000F040FE019B5B69019A926910469847F3
:1080340000238DF80C3003AB184600F01DFE019BA5
:108044001B69002B1AD0019BD3E90223B3F1FF3F34
:1080540008BFB2F1FF3F11D0019BD3E9022301997C
:10806400096900200C460546161943EB0507019BD8
:10807400C3E9026701238DF80E3002E000238DF876
:108084000E309DF80C30184600F00CFE9DF80E30B2
:10809400002B19D0019B1946104802F027FE01233A
:1080A4008DF80F3010E0019BD3E90223B3F1FF3FB9
:1080B40008BFB2F1FF3F07D0019B1946074802F001
:1080C40015FE01238DF80F309DF80F30184605B0CA
:1080D400F0BD00BFF0440300245F002048450300C6
:1080E40030B58BB0019000910D230993009B0022C1
:1080F4001A70019BD3E90223CDE90623FFF70AFF97
:10810400DDE90623141A63EB0105CDE90445DDE935
:108114000423012A73F1000318DB049BB3F5350F24
:1081240005D300F00BFB0246144B134400E0069BFE
:1081340003934FF49603039A0021114801F0A0F829
:108144000990099B002B05D1012314E000210C4860
:1081540001F06EF9099B0D2B07D10198FFF72CFF55
:1081640003461A46009B1A7004E006494FF48670D1
:1081740007F00EFB002318460BB030BDFFFFB40020
:1081840080520020F044030000B583B0044802F09C
:10819400E7FD0190019B184603B05DF804FB00BFA6
:1081A4004845030000B583B0044802F0FBFD01908C
:1081B400019B184603B05DF804FB00BF484503006B
:1081C40000B583B0FFF7E0FF0190019B002B06D0C0
:1081D40001994FF0FF324FF0FF33C1E90223019BB5
:1081E400002BEFD100BF00BF03B05DF804FB00001B
:1081F400054BD3E9002312F1807043F10001024BD7
:10820400C3E9000100BF7047285F002010B582B0A9
:108214000190124B1B68002B1DD0019801F03DF911
:1082240004460021019801F029F903461946204625
:1082340000F078FA0346B3F5960F04D3084940F2E8
:10824400411007F0A5FA054B1B681846FFF7B4FE6A
:10825400024B00221A6000BF02B010BD205F002054
:10826400F044030000B583B00190FFF753FE0246CB
:108274000B460349C1E9002300BF03B05DF804FBCA
:10828400305F002000B587B00190FFF78BFF0490AA
:1082940000238DF81730049B002B58D0049BD3E99E
:1082A4000223B3F1FF3F08BFB2F1FF3F02D1FFF752
:1082B4006BFF54E02E4B1B68002B03D101238DF878
:1082C40017301DE0049BD3E90201294B1B68D3E955
:1082D4000223904271EB030312D201238DF817306D
:1082E400234B1B68D3E90223B3F1FF3F08BFB2F16C
:1082F400FF3F05D01E4B1B6819461E4802F0F6FCD2
:108304009DF81730002B2BD0FFF73EFF04900DF1A2
:108314000F0319460498FFF7E3FE0346002B12D01F
:10832400134B1B68002B02D1019800F0B5FE104AD4
:10833400049B13609DF80F3083F00103DBB2002B24
:10834400A3D000BF0FE00A4B00221A609DE7084B40
:108354001B68002B06D1019800F0B4FE02E094E7FC
:1083640000BF00E000BF00BF07B05DF804FB00BF22
:10837400205F00204845030000B587B001902B4AD8
:1083840003AB1946104601F086F9049045E0049BBE
:108394001B78022B2BD0022B2FDC002B02D0012BBD
:1083A40011D02AE0049B5B68D3E90223B3F1FF3FB9
:1083B40008BFB2F1FF3F22D0049B5B6819461C48FA
:1083C40002F094FC1BE0049B5A681A4B1B689A4207
:1083D40003D1184B00221A6012E0049B5B68194613
:1083E400134802F0F3FC03468DF8173008E0FFF75A
:1083F400E7FE114B01221A7002E000BF00E000BF4B
:108404000A4A03AB1946104601F05EF9074A03AB6A
:108414001946104601F03FF90490049B002BB6D195
:1084240000BF00BF07B05DF804FB00BF905F0020F1
:1084340048450300205F0020245F002000B583B07E
:108444000190019800F0E7FF0346002B01D0FFF7ED
:10845400CFFE0021019800F0FCFF0346002B02D060
:108464000198FFF7D3FE0121019800F0F2FF0346C3
:10847400002B02D00198FFF7F5FE0198FFF77CFF6F
:108484000198FFF7FFFE00BF03B05DF804FB000096
:1084940008B5024801F00EF800BF08BD8052002064
:1084A40000B585B0034600918DF80730114A02AB40
:1084B4001946104601F0C2F80390039B002B13D019
:1084C400039B9DF807201A70039B009A5A60094A7F
:1084D40002AB1946104601F0CAF80346002B01D03E
:1084E400FFF7D6FF002300E00423184605B05DF82B
:1084F40004FB00BF905F002000B583B0164B1B68DF
:108504000093164808235822154901F064F8019095
:10851400019B002B01D0019B19E06B46114A1946BF
:10852400114800F03BFD0190019B002B01D0019B01
:108534000DE001210C4800F05DFF01230B4A0121ED
:10854400094800F0D5FD0A4B01221A70019B184618
:1085540003B05DF804FB00BF44450300905F0020B6
:10856400385F00204184020080520020FFFF7F001A
:10857400245F002000B587B003900B4601928DF86C
:108584000B30039B002B04D1164940F25A2007F00C
:10859400FFF8019B002B04D1124940F25B2007F045
:1085A400F7F8019B002B01D1072317E0039B1B68FD
:1085B400059305994FF0FF324FF0FF33C1E90223D1
:1085C400059B019A5A619DF80B30012B0CBF0123C6
:1085D4000023DBB21A46059B1A610023184607B034
:1085E4005DF804FBF0440300F0B589B003900291F8
:1085F4000192039B002B04D1264940F26B2007F023
:10860400C7F8039B069300238DF817300DF1170369
:10861400184600F031FB069BD3E90223B3F1FF3F78
:1086240008BFB2F1FF3F11D1FFF774FC02460B46BD
:10863400029900200C460546161943EB0507069BD4
:10864400C3E9026701238DF81F3002E000238DF88F
:108654001F309DF81730184600F024FB9DF81F309A
:1086640083F00103DBB2002B01D000230EE0069B54
:10867400019A9A61069B1B69002B02D0069B029A01
:108684001A6106990020FFF70BFF0346184609B04C
:10869400F0BD00BFF044030000B587B00190019B1A
:1086A400002B04D11E4940F2932007F071F8019B7E
:1086B400049300238DF80F300DF10F03184600F0DA
:1086C400DBFA049BD3E90223B3F1FF3F08BFB2F105
:1086D400FF3F03D100238DF8173009E004994FF0D0
:1086E400FF324FF0FF33C1E9022301238DF8173025
:1086F4009DF80F30184600F0D5FA9DF8173083F036
:108704000103DBB2002B01D0002304E00499012013
:10871400FFF7C6FE0346184607B05DF804FB00BF2A
:10872400F044030082B001900091019A009BD31A97
:1087340023F07F43184602B07047000008B5034891
:1087440000F0ABFE0346184608BD00BF805200206F
:1087540000B587B00390029113468DF807300023CB
:108764000593039B1B781A46114B9B5C002B09D085
:10877400039B04339DF807200299184605F034FF43
:1087840005900FE0039B1B781A46094B9B5C002B5A
:1087940008D1039B0C339DF807200299184605F075
:1087A400CDF80590059B184607B05DF804FB00BFA3
:1087B4001860002000B585B0019000238DF80F30BB
:1087C400019B1B781A46114B9B5C002B08D0019B24
:1087D4000433184605F0C6FF03468DF80F300EE04B
:1087E400019B1B781A46094B9B5C002B07D1019B0C
:1087F4000C33184605F02AF903468DF80F309DF81E
:108804000F30184605B05DF804FB00BF1860002067
:1088140000B587B00390029113468DF8073000230A
:108824000593039B1B781A46114B9B5C002B09D0C4
:10883400039B04339DF807200299184605F0AAFF0C
:1088440005900FE0039B1B781A46094B9B5C002B99
:1088540008D1039B0C339DF807200299184605F0B4
:108864004DF90590059B184607B05DF804FB00BF61
:108874001860002084B00190019B9B680393019BC6
:10888400DA68039BD31A184604B0704700B587B062
:1088940001900091019B1B78022B45D0022B6ADCCE
:1088A400002B52D0012B66D1019B1B7A002B05D1E2
:1088B400012233493348FFF7ABFF5DE0019B5B685E
:1088C4001B7819463048FFF7F4FA0590059B002BF6
:1088D4000AD001238DF80C30059B04932B4B1B68A5
:1088E40003AA104698470DE02748FFF7C3FF034645
:1088F400002B07D000238DF80C30244B1B6803AAEF
:10890400104698472048FFF7B5FF03461E4A928851
:10891400934205D801221A491A48FFF779FF2BE040
:108924001B4B01221A7027E002238DF80C30019BA7
:10893400DB680493012212491248FFF769FF134BC5
:108944001B6803AA1046984716E012491248FFF71D
:10895400CBFA0346002B05D101220E490948FFF743
:10896400F7FE09E003238DF80C30084B1B6803AABB
:108974001046984700E000BF00BF07B05DF804FB55
:10898400AC5F002088520020B05F0020A45F00206C
:10899400AD5F0020A85F0020C05F002030B591B01B
:1089A4000390029101928DF803303C4A019B1360BD
:1089B400029B002B01D107236DE0029B1968029BE7
:1089C4005B689BB21A463648FFF747FA0F900F9B35
:1089D4000E930E9B002B01D00E9B5CE0029B9968CA
:1089E400029BDB689BB21A462E48FFF736FA0F90BB
:1089F4000F9B0D930D9B002B01D00D9B4BE02A4B3D
:108A040004AC1D460FCD0FC495E80F0084E80F0099
:108A1400039B5B690A93039B1B7C002B14BF0123FC
:108A24000023DBB28DF824309DF803308DF82C3010
:108A3400039B5B7C002B01D00E2300E000238DF808
:108A44002530039BDB680693039B9B680793039B7A
:108A54001B680593039B5B68049304AB134A194694
:108A6400134803F02FFB0F900F9B0C930C9B002BD0
:108A740001D00C9B0FE00F4B00221A70039B1B6864
:108A8400B3F1FF3F06D001220B490948FFF7C0FEAE
:108A9400034600E00023184611B030BDA45F002057
:108AA400B05F0020C05F002054450300918802009D
:108AB40088520020AD5F0020AC5F002000B587B075
:108AC4000190019B002B03D11449CA2006F060FEDB
:108AD400134B1B788DF8173001991248FFF704FAED
:108AE40004909DF81730002B12D00D4B00221A7001
:108AF40001220D490D48FFF78BFE0390039B02935F
:108B0400029B002B04D0054AD6210298FFF79AF85D
:108B1400049B184607B05DF804FB00BF74450300CE
:108B2400AD5F0020B05F0020AC5F002088520020C1
:108B340000B585B003468DF807309DF80730194617
:108B44001048FFF7B6F90390039B002B15D10E488C
:108B5400FFF730FE034683F00103DBB2002B0CD099
:108B64000A490848FFF7C0F90346002B05D1012242
:108B740006490548FFF7ECFD0390039B184605B032
:108B84005DF804FBC05F002088520020A85F00202D
:108B940082B0EFF310830093009B019372B600BF81
:108BA400019B184602B0704762B600BF00BF704711
:108BB40000B585B00190FFF7EBFF0390164B9B685F
:108BC400002B1BD1144B01229A60144BD3F8802044
:108BD400134B1340104A1360104B114AC3F8802002
:108BE4000E4BD3F884300C4A53600C4B4FF0FF32D9
:108BF400C3F88420019B00221A7002E0019B012229
:108C04001A70039B002B01D1FFF7CEFF00231846F7
:108C140005B05DF804FB00BFD05F002000E100E078
:108C2400FC06FFBD00B585B003468DF80730104B38
:108C34009B68002B16D09DF80730002B12D1FFF74C
:108C4400A7FF03900B4A0A4B1B681360094A084BA1
:108C54005B685360064B00229A60039B002B01D192
:108C6400FFF7A2FF0023184605B05DF804FB00BF20
:108C7400D05F002000E100E000B583B0019000F077
:108C84002BF80346012B03D00549432006F080FD51
:108C94000198FFF78DFF00BF03B05DF804FB00BF30
:108CA400CC45030000B583B003468DF8073000F0CF
:108CB40013F80346012B03D00649512006F068FD42
:108CC4009DF807301846FFF7ADFF00BF03B05DF80D
:108CD40004FB00BFCC45030084B0EFF3058301938C
:108CE400019BC3F308030393039B002B0DD1EFF304
:108CF40014830093009B0293029B03F00103002B57
:108D04000CBF01230023DBB200E00123184604B0AA
:108D14007047000082B003468DF807309DF9073094
:108D2400002B0CDB9DF8073003F01F0205499DF969
:108D340007305B09012000FA02F241F8232000BF4A
:108D440002B0704700E100E082B003468DF80730BE
:108D54009DF90730002B0DDB9DF8073003F01F024F
:108D640006499DF907305B09012000FA02F24033FD
:108D740041F8232000BF02B0704700BF00E100E0CB
:108D840082B0034600918DF807309DF90730002B1F
:108D94000ADB009BDAB20C499DF907305201D2B2CA
:108DA4000B4483F800230BE0009BDAB207499DF8DB
:108DB400073003F00F03043B5201D2B20B441A767E
:108DC40000BF02B0704700BF00E100E000ED00E02A
:108DD40000B583B003460A468DF8073013468DF874
:108DE40006309DF80630012B03D99DF80630032B7D
:108DF4000BD99DF80630042B03D99DF80630072BB8
:108E040003D908496B2006F0C3FC9DF806209DF9A0
:108E1400073011461846FFF7B3FF00BF03B05DF8F3
:108E240004FB00BF2846030000B583B003468DF859
:108E340007309DF907301846FFF76CFF00BF03B0F9
:108E44005DF804FB00B585B00190019B002B0AD0AE
:108E5400074B43F001030393019B9B010293039B84
:108E64000298984700E000BF05B05DF804FB00BF1E
:108E74003047030084B0039002910192039B029A4D
:108E840002F5A872019943F8221000BF04B070479C
:108E940082B001900091019B009A02F5A87253F8E8
:108EA4002230184602B0704782B001900091019BB5
:108EB400009AC3F8042300BF02B0704782B0019047
:108EC4000091019B009AC3F8082300BF02B07047C9
:108ED40082B001900B46ADF80230BDF80230019A21
:108EE40013441B68184602B0704784B001900B46C7
:108EF400ADF80230BDF80230019A134400221A6022
:108F0400BDF80230019A13441B680393039B00BF0E
:108F140004B0704782B00190019BD3F80435184621
:108F240002B0704700B583B001900091009BB3F587
:108F3400805F04D306494FF4BE7006F029FC019B00
:108F4400009AC3F8082500BF03B05DF804FB00BF16
:108F54005846030082B001900B468DF803309DF80B
:108F64000320019B13441A460123136000BF02B07F
:108F7400704782B001900091019B009AC3F844238A
:108F840000BF02B0704782B001900091019B009A2B
:108F9400C3F8482300BF02B07047000000B587B093
:108FA400039002910192039B002B03D13349552076
:108FB40006F0EEFB029B002B03D13049562006F04D
:108FC400E7FB019B002B03D12C49572006F0E0FB63
:108FD400039B5B7919462A4A019B42F82130039B83
:108FE4005B79284ADB0013441B79002B0ED008233D
:108FF4000593254A254BD31ADB081B0443F00203CF
:1090040023491846FDF75AFE059B32E0039B1A6874
:10901400029B1B8819461046FFF784FF039B93F9B4
:109024000420029B9B7819461046FFF7D1FE039B50
:1090340093F904301846FFF7F7FE039B5B79114A56
:10904400DB00134401221A71039B5B7919460D4A14
:10905400039B42F83130002305930B4A0B4BD31A80
:10906400DB081B0443F003030A491846FDF726FEF8
:10907400059B184607B05DF804FB00BF8846030053
:10908400DC5F0020E05F0020F0400300B8400300F4
:10909400DC4603000047030000B583B00190019B48
:1090A400002B03D10649872006F072FB019B1B6845
:1090B40000211846FFF74EFF00BF03B05DF804FB24
:1090C4008846030000B583B00190019B002B03D1B7
:1090D40006498D2006F05CFB019B1B6804211846A1
:1090E400FFF738FF00BF03B05DF804FB88460300B8
:1090F40000B587B00390029101928DF80330039B71
:10910400002B03D12149962006F042FB4FF4803214
:10911400029B02FA03F30593029B50339BB29B001C
:10912400ADF81230019B23F07F430193039B1B682E
:1091340005991846FFF7C2FE039B1B68059918465C
:10914400FFF721FF039B1B68BDF812201146184648
:10915400FFF7CBFE039B1B68019A02991846FFF7A1
:1091640089FE039B1B6805991846FFF702FF9DF8CB
:109174000330002B05D0039B1B6805991846FFF7A5
:1091840093FE00BF07B05DF804FB00BF88460300F0
:1091940000B585B00390029113468DF80730039B08
:1091A400002B03D10B49A92006F0F2FA039B1B689C
:1091B40002991846FFF7DDFE9DF80730002B05D015
:1091C400039B1B6802991846FFF76EFE00BF05B0AB
:1091D4005DF804FB8846030000B583B0019000915C
:1091E400019B002B03D10A49B32006F0D1FA019B5D
:1091F4001B6800991846FFF7C6FE019B1B6800997F
:109204001846FFF75BFE00BF03B05DF804FB00BF28
:109214008846030000B583B001900B46ADF80230D8
:10922400019B002B03D10F49BA2006F0B1FA019B30
:109234001B68BDF8022011461846FFF749FE034695
:10924400002B09D0019B1B68BDF80220114618466B
:10925400FFF74BFE012300E00023184603B05DF83E
:1092640004FB00BF8846030082B001900091019A7C
:10927400009BD31A23F07F43184602B070470000C6
:1092840000B58BB00390029101920093039B002BD5
:1092940003D15749CD2006F07BFA4FF48032029B6C
:1092A40002FA03F30993029B50339BB29B00ADF87F
:1092B4002230019B23F07F43019309990398FFF720
:1092C4008BFF039B1B681846FFF724FE0790039B44
:1092D4001B6802991846FFF7DBFD0690039B1B6889
:1092E400079A02991846FFF7C5FD039B1B68BDF852
:1092F400222011461846FFF7F8FD07990698FFF754
:10930400B3FF0346012B0AD11020FFF79BFD039BFB
:109314001B68BDF8222011461846FFF7E6FD039BA3
:109324001B681846FFF7F6FD079007990198FFF7A9
:109334009BFF0590039B1B6809991846FFF719FECC
:10934400059B012B15D1039B1868019B01331A4619
:109354000299FFF78FFD1020FFF774FD039B1B6834
:109364001846FFF7D7FD0246079B934235D00D23DD
:1093740039E0039B1B68019A02991846FFF77AFDAE
:10938400039B1B681846FFF7C5FD0790019B013B33
:1093940007991846FFF768FF0590009BC3F1FF1378
:1093A40003F57F43059A9A4201D90D231BE0059BDF
:1093B400002B12D1039B1868019B01331A460299B2
:1093C400FFF758FD039B1B681846FFF7A3FD0246F1
:1093D400079B934201D00D2305E0012209990398CC
:1093E400FFF7D6FE002318460BB05DF804FB00BF60
:1093F4008846030000B583B001900B468DF8033016
:109404009DF803301A4602210198FFF7C1FE00BF00
:1094140003B05DF804FB00B583B001904FF4827192
:109424000198FFF7F7FE0346184603B05DF804FB06
:1094340000B583B0019000914FF48032009B02FA92
:1094440003F319460198FFF7C7FE00BF03B05DF8A8
:1094540004FB00B585B001900091009B50339BB292
:109464009B00ADF80E30BDF80E3019460198FFF799
:10947400D1FE0346184605B05DF804FB00B583B081
:1094840001900091019B1B6800991846FFF700FDAD
:109494000346184603B05DF804FB00B583B00190A1
:1094A400019B1B681846FFF735FD0346184603B0B9
:1094B4005DF804FB00B583B00190019B93F904307F
:1094C4001846FFF741FC00BF03B05DF804FB000041
:1094D40008B5044B1B68044A12681046984700BF3D
:1094E40008BD00BFDC5F0020E05F002086B0019073
:1094F4000091019B53E8011F8AB2D88902449889DC
:10950400824228BF121A1889824202BFBFF32F8FEA
:10951400002307E0C2EA010243E801200028E9D160
:109524004FF001038DF80F30059002910492029AD6
:10953400009B1A609DF80F30DBB2184606B07047E6
:1095440084B00190019951E8013FC3EA034341E823
:109554000132002AF7D10392029300BF04B070478E
:1095640086B001900091019B53E8021F1FFAA1F2FB
:10957400D888824202BFBFF32F8F00230DE0D88921
:1095840002449889824228BF121AC1EA024243E87F
:1095940002200028E8D14FF001038DF80F30059028
:1095A40002910492029A009B1A609DF80F30DBB27C
:1095B400184606B0704784B00190019951E8023F03
:1095C400C3EA234341E80232002AF7D1039202930B
:1095D40000BF04B0704784B00390029111461A464C
:1095E4000B46ADF806301346ADF80430029B002B51
:1095F40001D10E231FE0BDF80630BDF80420B3FBF3
:10960400F2F101FB02F29B1A9BB2002B01D0092359
:1096140011E0039B029A1A60039B00225A60039B89
:1096240000229A60039BBDF806209A81039BBDF833
:109634000420DA810023184604B0704700B585B0D1
:1096440001900091009B19460198FFF74FFF0346D4
:10965400002B07D0019B1B68009A128813440393C4
:10966400039B00E00023184605B05DF804FB00B539
:1096740083B001900091009B1A88009B5B889A42FA
:1096840004D10198FFF75CFF012300E00023184692
:1096940003B05DF804FB00B585B001900091009B18
:1096A40019460198FFF75CFF0346002B07D0019B86
:1096B4001B68009A528813440393039B00E0002321
:1096C400184605B05DF804FB00B583B00190009125
:1096D400009B1A88009B5B889A4204D10198FFF78B
:1096E4006AFF012300E00023184603B05DF804FB81
:1096F40010B487B001900091019B009A53E8004F89
:10970400104643E8000191F0000FF7D1059404904E
:109714000391059B184607B05DF8044B704710B4DD
:1097240087B001900091019B009A53E8004F44EAEE
:10973400020043E8000191F0000FF6D10594049073
:109744000391049B184607B05DF8044B704710B4AE
:1097540087B001900091019B009A53E8004F04EAFE
:10976400020043E8000191F0000FF6D10594049043
:109774000391059B184607B05DF8044B704710B47D
:1097840087B001900091019B009A53E8004F04EACE
:10979400020043E8000191F0000FF6D10594049013
:1097A4000391049B184607B05DF8044B704710B44E
:1097B40087B001900091019B009A53E8004F04EB9D
:1097C400020043E8000191F0000FF6D105940490E3
:1097D4000391049B184607B05DF8044B704710B41E
:1097E40087B001900091019B009A53E8004FA4EBCD
:1097F400020043E8000191F0000FF6D105940490B3
:109804000391049B184607B05DF8044B704700B5FC
:1098140083B0019001210198FFF781FF03461846A8
:1098240003B05DF804FB00B583B0019000210198FA
:10983400FFF78DFF0346184603B05DF804FB0000F4
:1098440000B583B001900B468DF80330019B002BCB
:1098540003D10849E82005F09BFF019BDA689DF8D5
:1098640003300199098A01FB03F31344184603B03A
:109874005DF804FB3847030000B583B00190009104
:10988400019B002B03D10849F52005F081FF009BC3
:10989400019AD2689B1A019A128AB3FBF2F3DBB2E3
:1098A400184603B05DF804FB3847030000B585B0E3
:1098B4000190019B002B01D10E234CE0019B1B68FE
:1098C400002B03D12649FF2005F062FF019B5B6852
:1098D400002B04D122494FF4807005F059FF019BFD
:1098E4009B68002B04D11E4940F2011005F050FF83
:1098F400019BDB68002B04D119494FF4817005F0FA
:1099040047FF019B1B8A002B04D1154940F2031029
:1099140005F03EFF019B9A68019B5B68D31A8DF8A2
:109924000F30019B1B68019A52681A6007E0019B83
:109934001A681368591C11609DF80F201A709DF85D
:109944000F305A1E8DF80F20002BF0D1019B1B689D
:1099540000221A710023184605B05DF804FB00BF0D
:109964003847030000B585B00190019B002B04D15A
:109974001F494FF4927005F00BFF0023039300235B
:109984008DF80A300DF10A031846FFF775F9019BAB
:109994001B681A68019B5B689A421FD9019B1B686C
:1099A4001A68013A1A601B681B7819460198FFF778
:1099B40047FF0390019B9A68019B1B681B68D31A9D
:1099C4008DF80B30019B1B681B799DF80B209A4284
:1099D40004D9019B1B689DF80B201A719DF80A306D
:1099E4001846FFF75FF9039B184605B05DF804FBC2
:1099F4003847030010B584B001900091019B002BFF
:109A040004D1154940F2471005F0C2FE009B002B1B
:109A140004D111494FF4A47005F0BAFE009B0393DE
:109A240000238DF80B300DF10B031846FFF724F9D2
:109A3400019B1B681C68621C1A6003990198FFF75C
:109A44001BFF034623709DF80B301846FFF72AF9D5
:109A540000BF04B010BD00BF3847030000B583B099
:109A64000190019B002B03D10C49312005F090FE9D
:109A7400019B9B68002B0CD0019B5B69019A1069C8
:109A8400019A1168019A92689847019B00229A6092
:109A940000E000BF03B05DF804FB00BF9047030083
:109AA4000EB400B584B00190019B002B03D118497A
:109AB400422005F06DFE019B5B69002B03D1144924
:109AC400432005F065FE019B1B68002B03D1104960
:109AD400442005F05DFE019B5B68002B03D10C491B
:109AE400452005F055FE059B002B0AD00023039367
:109AF40006AB039303AB1A460599019800F0B0F93D
:109B040000E000BF04B05DF804EB03B0704700BF91
:109B14009047030000B583B001900B468DF80330E5
:109B2400019B1A68019B9B68581C01998860134427
:109B34009DF803201A70019B9A68019B5B689A4206
:109B440002D30198FFF78AFF00BF03B05DF804FB5E
:109B540000B587B00390029101920093002305930E
:109B6400009B03F00103002B24D00BE0029B013384
:109B74000293059B013305939DF81330194603980E
:109B8400FFF7C8FF029B1B788DF813309DF8133044
:109B9400002BEBD106E0019B013B019320210398AC
:109BA400FFF7B8FF019A059B9A422ED9019B002B1F
:109BB400F1D12AE0029B002B0BD002980AF090F915
:109BC400059006E0019B013B019320210398FFF7D8
:109BD400A1FF019A059B9A420FD9019B002BF1D159
:109BE4000BE0029B01330293059B013305939DF81F
:109BF400133019460398FFF78DFF029B1B788DF8ED
:109C040013309DF81330002BEBD100BF07B05DF883
:109C140004FB000000B589B0039002910192009307
:109C2400029B07930123069307E0079A019BB2FB6B
:109C3400F3F30793069B01330693079A019B9A4219
:109C4400F3D2009A069B9A4201D9009B06930B9B80
:109C540003F00103002B22D10A9B002B1FD00B9B86
:109C640003F00203002B06D0009B002B03D130230A
:109C74008DF8173002E020238DF8173008E00A9B96
:109C8400013B0A939DF8173019460398FFF742FFEA
:109C94000A9B002B03D0069A0A9B9A42EFD3012316
:109CA4000793009B012B03D9009B013B009309E020
:109CB400029A079BB2FBF3F30493049A019B9A4222
:109CC40000D205E0079B019A02FB03F30793E8E740
:109CD400029A079BB2FBF3F30493049B079A02FBDB
:109CE40003F3029AD31A0293154A049B13441B7874
:109CF40019460398FFF70EFF079A019BB2FBF3F393
:109D04000793079B002BE3D10B9B03F00103002B6C
:109D140011D00A9B002B0ED006E00A9B013B0A934C
:109D240020210398FFF7F6FE0A9B002B03D0069A26
:109D34000A9B9A42F1D300BF09B05DF804FB00BF4F
:109D44003048030000B589B0059004910392029352
:109D5400049B002BB8BF5B4206930123079307E0E3
:109D6400039B069A92FBF3F30693079B0133079335
:109D7400039B069A9A42F3DA029A079B9A4201D904
:109D8400029B07930A9B002B0AD0049B002B04DB45
:109D94000B9B03F00403002B02D00A9B013B0A93A4
:109DA4000B9B03F00203002B02D0029B002B16D066
:109DB4000B9B03F00103002B11D10A9B002B0ED047
:109DC40006E00A9B013B0A9320210598FFF7A2FEB7
:109DD4000A9B002B03D0079A0A9B9A42F1D3049B57
:109DE400002B07DA049B5B4204932D210598FFF7AF
:109DF40091FE08E00B9B03F00403002B03D02B21FE
:109E04000598FFF787FE0B9B03F00203002B19D084
:109E14000B9B03F00103002B14D1029B002B11D1E7
:109E24000A9B002B0ED006E00A9B013B0A933021CB
:109E34000598FFF76FFE0A9B002B03D0079A0A9B35
:109E44009A42F1D304990B9B01930A9B0093029BC2
:109E5400039A0598FFF7DEFE00BF09B05DF804FB26
:109E640000B58FB0059004910392059B002B04D19B
:109E7400AD4940F2522005F08BFC059B5B69002B39
:109E840004D1A9494FF4157005F082FC059B1B68A9
:109E9400002B04D1A44940F2552005F079FC059B20
:109EA4005B68002B04D1A04940F2562005F070FCF9
:109EB400049B002B00F09381049B1B788DF83730B2
:109EC400049B013304939DF83730002B00F07E810E
:109ED4009DF83730252B40F06D8100230A93012330
:109EE4000C93049B1B788DF837309DF83730302B5A
:109EF4000DD0302B1BDC2B2B11D02D2B17D10A9B13
:109F040043F001030A93049B0133049312E00A9B78
:109F140043F002030A93049B013304930AE00A9B6F
:109F240043F004030A93049B0133049302E00023E7
:109F34000C9300BF0C9B002BD3D1002309939DF8F5
:109F440037302A2B0CD1039B1B68191D039A11600F
:109F54001B68099A13440993049B013304931AE080
:109F6400049B1B788DF837309DF837302F2B12D98E
:109F74009DF83730392B0ED8049B01330493099A8A
:109F840013469B0013445B001A469DF83730134474
:109F9400303B0993D3E700230B93049B1B788DF884
:109FA40037309DF837302E2B1DD1049B0133049399
:109FB400049B1B788DF837309DF837302F2B12D93E
:109FC4009DF83730392B0ED8049B013304930B9A38
:109FD40013469B0013445B001A469DF83730134424
:109FE400303B0B93E4E7049B1B788DF837309DF8E6
:109FF40037306C2B03D09DF83730682B07D1049B86
:10A0040001330493049B1B788DF83730EFE79DF8F8
:10A014003730252B00F0C480252BC0F2C680782B66
:10A0240000F3C380582BC0F2C080583B202B00F2B1
:10A03400BC8001A252F823F031A10200AFA10200BA
:10A04400AFA10200AFA10200AFA10200AFA10200C4
:10A05400AFA10200AFA10200AFA10200AFA10200B4
:10A06400AFA10200C1A00200E3A00200AFA1020060
:10A07400AFA10200AFA10200AFA10200E3A0020061
:10A08400AFA10200AFA10200AFA10200AFA1020084
:10A09400AFA10200AFA1020071A10200AFA10200B2
:10A0A400AFA1020055A10200AFA1020007A1020066
:10A0B400AFA10200AFA1020031A10200039B1B6803
:10A0C400191D039A11601B680C930C9B8DF81F30AB
:10A0D4009DF81F3019460598FFF71CFD66E0039BA9
:10A0E4001B68191D039A11601B680C930A9B01934A
:10A0F400099B00930B9B0A220C990598FFF722FEFB
:10A1040054E0039B1B68191D039A11601B680C9390
:10A114000C990A9B0193099B00930B9B0A220598B7
:10A12400FFF778FD42E000BFDC470300039B1B6898
:10A13400191D039A11601B680C930C990A9B0193D7
:10A14400099B00930B9B10220598FFF763FD2DE0FC
:10A15400039B1B68191D039A11601B6808930A9BD3
:10A16400099A08990598FFF7F3FC1FE0039B1B6805
:10A17400191D039A11601B680C9330210598FFF791
:10A18400C9FC78210598FFF7C5FC0C9900230193BD
:10A1940008230093082310220598FFF73BFD05E0F0
:10A1A40025210598FFF7B6FC00E000BF049B0133AE
:10A1B400049305E09DF8373019460598FFF7AAFC8B
:10A1C400049B1B78002B7FF477AE00E000BF059B57
:10A1D4001B7B002B04D00598FFF740FC00E000BF78
:10A1E4000FB05DF804FB00BF00B583B00190019887
:10A1F400FFF75CFB0346184603B05DF804FB00B5AB
:10A204008BB001900091019B1B8A043B0793009A39
:10A21400079B1344DA1C079BB2FBF3F38DF81B3046
:10A224000198FFF79FFB0590059B002B01D10023AC
:10A2340038E0059B00221A71059B01225A71079B85
:10A244009AB2059BDA80059B09939DF81B30013B6C
:10A254000493099B019A1A60002308931DE0019856
:10A26400FFF780FB0390039B002B0ED0059B5B79CB
:10A274000133DAB2059B5A71099B039A1A60039B56
:10A28400019A1A60039B099304E0059800F00EF804
:10A29400002307E0089B01330893089A049B9A4221
:10A2A400DDD3059B18460BB05DF804FB00B58BB0FD
:10A2B4000190019B0793079B5B798DF81B30019BF1
:10A2C40008939DF81B30013B05930023099305E097
:10A2D400089B1B680893099B01330993099A059B02
:10A2E4009A42F5D3089B1B680493019B08930023AF
:10A2F40009930BE0089B1B68039308990498FFF7E4
:10A3040079FB039B0893099B013309939DF81B3048
:10A31400099A9A42EED300BF00BF0BB05DF804FB6C
:10A3240000B585B00190019B0393039B0433012185
:10A334001846FFF73CFA00BF05B05DF804FB00B512
:10A3440087B00190019B0593059B043301211846B6
:10A35400FFF745FA0346039303AB0493049B1B786E
:10A36400002B02D10198FFF7A1FF00BF07B05DF8F1
:10A3740004FB000000B591B0039002910192009398
:10A38400039B002B03D14349B62005F001FA039B3C
:10A394000993039B0F93099BDB881A46099B5B79FE
:10A3A40002FB03F3043B0893009A089B9A4203D3ED
:10A3B4003849C42005F0ECF9099BDB880793009B1E
:10A3C4001A1D079BB2FBF3F30E93009B0433079A09
:10A3D400B3FBF2F2079901FB02F29B1A0D93019B66
:10A3E4001A68009B1344089A9A4203D2089A009B65
:10A3F400D31A01E0019B1B680C93019B0C9A1A6011
:10A4040005E00F9B1B680F930E9B013B0E930E9B65
:10A41400002BF6D100230B93079A0D9BD31A0A93B2
:10A424000A9A0C9B934228BF13460A932AE0029A85
:10A434000B9B134406930F9A0D9B1344043305930B
:10A444009DF84830002B05D00A9A0599069809F022
:10A454005DFD04E00A9A0699059809F057FD00236A
:10A464000D930F9B1B680F930C9A0A9BD31A0C93A2
:10A474000B9A0A9B13440B93079A0C9B934228BF95
:10A4840013460A930C9B002BD1D100BF00BF11B01F
:10A494005DF804FB4048030000B589B005900491C1
:10A4A40003920293039B079307AA00230093029B42
:10A4B40004990598FFF75EFF079B039A9A4203D01D
:10A4C4000349F62005F064F900BF09B05DF804FB08
:10A4D4004048030000B589B00590049103920293AB
:10A4E400039B079307AA01230093029B04990598F1
:10A4F400FFF740FF079B039A9A4204D004494FF4A4
:10A50400807005F045F900BF09B05DF804FB00BF99
:10A514004048030082B003468DF807309DF90730A8
:10A52400002B0DDB9DF8073003F01F0206499DF94F
:10A5340007305B09012000FA02F2603341F823205E
:10A5440000BF02B0704700BF00E100E0BFF34F8FCF
:10A5540000BF064BDB6803F4E0620449044B134379
:10A56400CB60BFF34F8F00BF00BFFDE700ED00E0FD
:10A574000400FA0500B583B00190019B002B03D1C0
:10A584000449C42005F004F9019B5B68184603B034
:10A594005DF804FB9848030000B583B00190019B6B
:10A5A400002B03D10649722005F0F2F8019B00222A
:10A5B4001A60BFF35F8F00BF00BF03B05DF804FBF8
:10A5C400EC48030000B585B00190019B002B03D13A
:10A5D4000A49852005F0DCF801210198FFF788F885
:10A5E4000390BFF35F8F00BF039B002B0CBF0123BD
:10A5F4000023DBB2184605B05DF804FBEC48030009
:10A6040000B583B00190019B002B03D10A4992202D
:10A6140005F0BEF8019B1B68012B03D0064993206B
:10A6240005F0B6F8BFF35F8F00BF019B00221A60EC
:10A6340000BF03B05DF804FBEC48030033DF704750
:10A6440000BF184641DF704700BF18464FF08043F3
:10A654000122C3F80025BFF34F8F00BF20BFFDE7E1
:10A6640000B585B000238DF807300DF107031846B7
:10A67400FEF702FBF1EE103A0393039B23F09F03D2
:10A684000293029BE1EE103A00BFBFF35F8F00BF5D
:10A694002620FFF73FFF9DF807301846FEF702FB20
:10A6A400039B03F00703002B03D004497D2005F02E
:10A6B4006FF800BF05B05DF804FB00BF304903002C
:10A6C40008B5064B00221A700548FFF765FF0549D7
:10A6D400054800F0AFFA0023184608BDF05F0020DB
:10A6E400EC5F00208C490300F45F002000B583B0C8
:10A6F400FFF7B6FF09F038F80346002B0ED0FFF73A
:10A70400A1FF0190019B002B0BD0019B022B08D0D1
:10A7140006494FF4B07005F03BF802E020BF40BF9B
:10A7240020BF00BF03B05DF804FB00BF3049030045
:10A7340000B583B00FE02148FFF71CFF0190019B97
:10A744001B681F4A1278104698470346002B31D0E5
:10A754001A4800F099FA1948FFF70CFF0346002B3A
:10A76400E9D1FCF77BFDFCF737FB0346002BFAD15C
:10A77400134B1B78032B03D0114B1B78022B01D1F5
:10A78400FFF7E4FE08F0F0FF0346002B0FD0FFF7BD
:10A7940055FF0090009B002B07D0009B022B04D098
:10A7A40008494FF4D17004F0F3FF20BFFDE7FFF731
:10A7B4004DFF00E000BF03B05DF804FBF45F002030
:10A7C400E85F00203049030000B583B003468DF8EC
:10A7D40007301748FFF7F6FE034683F00103DBB2A8
:10A7E400002B21D19DF80730042B0ED0114B1B7880
:10A7F400002B03D00E48FFF703FF16E00E4A9DF826
:10A80400073013700B4B01221A700A4B1B78002B74
:10A8140004D10A4940F2D51004F0BAFFFFF788FFCB
:10A824000348FFF7EDFE00E000BF03B05DF804FB52
:10A83400EC5F0020F05F0020E85F00203049030057
:10A8440082B00190019B9B68024A12781344184617
:10A8540002B07047EB49030000B583B0019000914A
:10A86400019B002B03D10849832004F091FF019B35
:10A874009B68009A9A4202D2009B013300E00023B5
:10A88400184603B05DF804FB9849030000B585B091
:10A894000190019B1B681B680393019B1B685B6809
:10A8A4000293029A039B9A4203D3029A039BD31AFC
:10A8B40007E00198FFF7C4FF0246039BD21A029BEC
:10A8C4001344184605B05DF804FB000000B585B0DC
:10A8D4000190019B002B03D10D49982004F058FFEF
:10A8E400019B1B681B680393019B1B685B680293B5
:10A8F40002990198FFF7B0FF0246039B93420CBFF5
:10A9040001230023DBB2184605B05DF804FB00BF49
:10A914009849030010B588B0019000910023079373
:10A92400019B002B03D15649A32004F031FF009B67
:10A93400002B03D15249A42004F02AFF00238DF8F0
:10A944000F300DF10F031846FEF796F90198FFF743
:10A95400BDFF03468DF81B309DF81B3083F00103C7
:10A96400DBB2002B03D1019B1B7C002B7BD1019B11
:10A974001B685B680593019B1B685A68019B1C68F4
:10A9840011460198FFF768FF034663609DF81B308A
:10A99400002B0AD0019B1B681A68019B1C68114696
:10A9A4000198FFF759FF03462360019BDB68013BD5
:10A9B400072B38D801A252F823F000BFE1A9020006
:10A9C400F1A902002BAA020003AA02002BAA02008A
:10A9D4002BAA02002BAA020015AA0200019B5A68A6
:10A9E400059B1344009A12781A702DE0019B5A6853
:10A9F400059B5B001344009A12881A8024E0019B93
:10AA04005A68059B9B001344009A12681A601BE065
:10AA1400019B5A68059BDB00D118009BD3E90023F6
:10AA2400C1E9002310E0019B5B681946019BDB68C8
:10AA3400059A02FB03F30B441846019BDB681A4694
:10AA4400009909F063FA00BF0198FFF71FFF049013
:10AA5400019B1B689B68049A9A4207D9019B1B6857
:10AA6400049A9A6002E00423079300E000BF9DF873
:10AA74000F301846FEF716F9079B184608B010BDAC
:10AA84009849030010B588B00390029113468DF8DD
:10AA9400073000230793039B002B03D14549E7208C
:10AAA40004F076FE029B002B03D14249E82004F017
:10AAB4006FFE00238DF817300DF117031846FEF7CB
:10AAC400DBF8039800F078F8034683F00103DBB267
:10AAD400002B63D0039B1B681B6806939DF807300B
:10AAE40083F00103DBB2002B0AD0039B1B681A68B6
:10AAF400039B1C6811460398FFF7AEFE03462360D0
:10AB0400039BDB68013B072B37D801A252F823F0E3
:10AB140035AB020045AB02007FAB020057AB02002D
:10AB24007FAB02007FAB02007FAB020069AB020087
:10AB3400039B5A68069B13441A78029B1A702FE0F1
:10AB4400039B5A68069B5B0013441A88029B1A8075
:10AB540026E0039B5A68069B9B0013441A68029BD9
:10AB64001A601DE0039B5A68069BDB001344D3E97B
:10AB740000230299C1E9002312E0039B5B68194694
:10AB8400039BDB68069A02FB03F30B441946039B01
:10AB9400DB681A46029809F0B9F901E00523079326
:10ABA4009DF817301846FEF77DF8079B184608B045
:10ABB40010BD00BF9849030000B585B00190019B0A
:10ABC400002B04D10B4940F22B2004F0E1FD019B42
:10ABD4001B681B680393019B1B685B680293039AC1
:10ABE400029B9A420CBF01230023DBB2184605B036
:10ABF4005DF804FB9849030082B00190019B9B68B7
:10AC040000229A60019B9B6800221A61019B9B6849
:10AC140000225A61019B9B680022DA60019B9B68B9
:10AC240000225A60019B9B6800221A6000BF02B098
:10AC34007047000000B583B001900091019B002B88
:10AC440003D11049502004F0A3FD009B002B03D135
:10AC54000C49512004F09CFD019B009A1A60019B51
:10AC64001B681A68019B5A60019B5A68019B1B6808
:10AC74005B689A4202D1019B00225A6000BF03B074
:10AC84005DF804FBEC49030000B583B00190019B1F
:10AC9400002B03D11449632004F07AFD019B1B6847
:10ACA400002B03D11049642004F072FD019B5B6802
:10ACB400002B14D0019B5B681A46019B1B689B68A0
:10ACC40013441A46019B5A60019B5A68019B1B68F6
:10ACD4005B689A4204D1019B00225A6000E000BFE5
:10ACE40003B05DF804FB00BFEC49030000B585B078
:10ACF40001900091019B002B03D118493A2004F0E4
:10AD040047FD009B002B03D114493B2004F040FD78
:10AD1400019B5B6803930FE0019B9B68039A126895
:10AD2400009910469847034683F00103DBB2002BD9
:10AD340007D1039B1B680393039B1B68002BEBD178
:10AD440000E000BF039B1A68009B1A60039B009AF3
:10AD54001A6000BF05B05DF804FB00BF684A030039
:10AD640000B585B00190019B002B03D10C49512003
:10AD740004F00EFD019B5B681B680393019B5B68F9
:10AD84001B68002B06D0019B5B681A68019B5B68FB
:10AD940012681A60039B184605B05DF804FB00BFF7
:10ADA400684A030000B583B00190019B002B03D1D6
:10ADB40005495D2004F0ECFC019B5B681B681846A8
:10ADC40003B05DF804FB00BF684A030000B585B01A
:10ADD40001900091019B002B03D11649692004F0D6
:10ADE400D7FC009B002B03D112496A2004F0D0FC4D
:10ADF40000238DF80B30019B5B6803930FE0039BEA
:10AE04001B68009A9A4207D1009B1A68039B1A6038
:10AE140001238DF80B3006E0039B1B680393039B0F
:10AE24001B68002BEBD19DF80B30184605B05DF87C
:10AE340004FB00BF684A030000B585B00190019887
:10AE440000F00EF80390039B002B01D0039B00E05D
:10AE5400024B184605B05DF804FB00BFC44A03006A
:10AE640086B00190164B0593164B04931FE0049A89
:10AE7400059BD31ADB10DA0F13445B10DB00059A31
:10AE840013440393039B1B680293029A019B9A4207
:10AE940002D9039B04930AE0029A019B9A4203D2CB
:10AEA400039B0833059302E0039B5B6804E0059A67
:10AEB400049B9A42DBD30023184606B0704700BFB8
:10AEC400C44E0300EC4F030000B585B0019000911F
:10AED400009B5B099B00019A1A44009B03F01F032B
:10AEE400012101FA03F319461046FEF718FC0390FA
:10AEF40000BF05B05DF804FB00B585B0019000917A
:10AF0400009B5B099B00019A1A44009B03F01F03FA
:10AF1400012101FA03F3DB4319461046FEF72FFC27
:10AF2400039000BF05B05DF804FB82B0019000916E
:10AF3400009B5B099B00019A13441A68009B03F071
:10AF44001F0322FA03F303F00103002B14BF0123B0
:10AF54000023DBB2184602B070470000BFF34F8FE6
:10AF640000BF064BDB6803F4E0620449044B13435F
:10AF7400CB60BFF34F8F00BF00BFFDE700ED00E0E3
:10AF84000400FA0582B01D4B1B68B3F1FF3F0AD1E0
:10AF94001B4B1B68DBB201931A4B1B681B0903F0A4
:10AFA4000F03009305E0154B1B680193164B1B68B8
:10AFB4000093019B062B1DD1009B033B042B17D848
:10AFC40001A252F823F000BFE1AF0200E5AF020096
:10AFD400E9AF0200EDAF0200F1AF020001230AE085
:10AFE400012308E0012306E0012304E0012302E039
:10AFF400012300E00023184602B07047300100101E
:10B00400E00F00F0E80F00F03401001082B0174B9D
:10B014001B68DBB20193164B1B681B0903F00F037B
:10B024000093019B062B1DD1009B033B042B17D8D7
:10B0340001A252F823F000BF51B0020055B0020043
:10B0440059B002005DB0020061B0020001230AE0C1
:10B05400002308E0002306E0002304E0002302E0CC
:10B06400002300E00023184602B07047E00F00F010
:10B07400E80F00F082B01D4B1B68B3F1FF3F0AD10B
:10B084001B4B1B68DBB201931A4B1B681B0903F0B3
:10B094000F03009305E0154B1B680193164B1B68C7
:10B0A4000093019B062B1DD1009B033B042B17D857
:10B0B40001A252F823F000BFD1B00200D5B00200C3
:10B0C400D9B00200DDB00200E1B0020001230AE0C1
:10B0D400012308E0012306E0012304E0012302E048
:10B0E400012300E00023184602B07047300100102D
:10B0F400E00F00F0E80F00F03401001082B0174BAD
:10B104001B68DBB20193164B1B681B0903F00F038A
:10B114000093019B062B1DD1009B033B042B17D8E6
:10B1240001A252F823F000BF41B1020045B1020070
:10B1340049B102004DB1020051B1020001230AE0FD
:10B14400002308E0002306E0002304E0002302E0DB
:10B15400002300E00023184602B07047E00F00F01F
:10B16400E80F00F082B01D4B1B68B3F1FF3F0AD11A
:10B174001B4B1B68DBB201931A4B1B681B0903F0C2
:10B184000F03009305E0154B1B680193164B1B68D6
:10B194000093019B062B1DD1009B033B042B17D866
:10B1A40001A252F823F000BFC1B10200C5B10200F0
:10B1B400C9B10200CDB10200D1B1020001230AE0FD
:10B1C400012308E0012306E0012304E0012302E057
:10B1D400012300E00023184602B07047300100103C
:10B1E400E00F00F0E80F00F03401001082B0174BBC
:10B1F4001B68DBB20193164B1B681B0903F00F039A
:10B204000093019B062B1DD1009B033B042B17D8F5
:10B2140001A252F823F000BF31B2020035B202009D
:10B2240039B202003DB2020041B2020001230AE039
:10B23400002308E0002306E0002304E0002302E0EA
:10B24400002300E00023184602B07047E00F00F02E
:10B25400E80F00F082B0174B1B68DBB20193164B6A
:10B264001B681B0903F00F030093019B062B1DD1E0
:10B27400009B033B042B17D801A252F823F000BF14
:10B2840099B202009DB20200A1B20200A5B202006E
:10B29400A9B2020001230AE0002308E0002306E02B
:10B2A400002304E0002302E0002300E0002318460A
:10B2B40002B07047E00F00F0E80F00F082B01D4BC1
:10B2C4001B68B3F1FF3F0AD11B4B1B68DBB2019330
:10B2D4001A4B1B681B0903F00F03009305E0154B81
:10B2E4001B680193164B1B680093019B062B1DD111
:10B2F400009B033B042B17D801A252F823F000BF94
:10B3040019B302001DB3020021B3020025B30200E9
:10B3140029B3020000230AE0002308E0012306E029
:10B32400012304E0012302E0012300E00023184686
:10B3340002B0704730010010E00F00F0E80F00F099
:10B344003401001082B01D4B1B68B3F1FF3F0AD1DA
:10B354001B4B1B68DBB201931A4B1B681B0903F0E0
:10B364000F03009305E0154B1B680193164B1B68F4
:10B374000093019B062B1DD1009B033B042B17D884
:10B3840001A252F823F000BFA1B30200A5B302004A
:10B39400A9B30200ADB30200B1B3020001230AE075
:10B3A400012308E0012306E0012304E0012302E075
:10B3B400012300E00023184602B07047300100105A
:10B3C400E00F00F0E80F00F03401001082B01D4BD4
:10B3D4001B68B3F1FF3F0AD11B4B1B68DBB201931F
:10B3E4001A4B1B681B0903F00F03009305E0154B70
:10B3F4001B680193164B1B680093019B062B1DD100
:10B40400009B033B042B17D801A252F823F000BF82
:10B4140029B402002DB4020031B4020035B4020094
:10B4240039B4020001230AE0012308E0012306E005
:10B43400012304E0012302E0012300E00023184675
:10B4440002B0704730010010E00F00F0E80F00F088
:10B454003401001082B0154B1B680193144B1B6818
:10B464000093019B062B1DD1009B033B042B17D893
:10B4740001A252F823F000BF91B4020095B4020077
:10B4840099B402009DB40200A1B4020000230AE0B2
:10B49400002308E0002306E0012304E0012302E086
:10B4A400012300E00023184602B070473001001069
:10B4B4003401001082B0154B1B680193144B1B68B8
:10B4C4000093019B062B1DD1009B033B042B17D833
:10B4D40001A252F823F000BFF1B40200F5B4020057
:10B4E400F9B40200FDB4020001B5020000230AE031
:10B4F400002308E0002306E0002304E0012302E027
:10B50400012300E00023184602B070473001001008
:10B514003401001008B5FFF7CDFF0346002B07D018
:10B524004FF010234FF08042D3F80832C2F8583558
:10B5340000BF08BD00BF044BD3F80034002BFAD081
:10B5440000BF00BF704700BF00E0014000B583B0FA
:10B554000190054A019BC2F80435FFF7EBFF00BFD9
:10B5640003B05DF804FB00BF00E00140024B034A56
:10B574001A6000BF704700BF9C5200200090D003A7
:10B5840008B5FFF7FFFC0346002B06D0964B1B685B
:10B594001B0A964A03F01F031360FFF737FD0346A7
:10B5A400002B02D0924B934A1A60FFF763FD0346C7
:10B5B400002B06D0904B1B685B0B904A03F00703EB
:10B5C4001360FFF79BFD0346002B05D08C4BDB6813
:10B5D4008B4A23F08073D360FFF7C4FD0346002B2E
:10B5E4000ED04FF080430022C3F80C214FF080436B
:10B5F4000022C3F810214FF080430022C3F83825FD
:10B60400FFF7F4FD0346002B02D07E4B03221A60A1
:10B61400FFF720FE0346002B0BD07B4B05221A605C
:10B624007A4B01221A607A4B00221A60794B3F222E
:10B634001A60FFF743FE0346002B76D04FF0805389
:10B64400754AD3F80434C2F820354FF08053724A57
:10B65400D3F80834C2F824354FF080536E4AD3F837
:10B664000C34C2F828354FF080536B4AD3F81034A9
:10B67400C2F82C354FF08053674AD3F81434C2F81B
:10B6840030354FF08053644AD3F81834C2F8343557
:10B694004FF08053604AD3F81C34C2F840354FF061
:10B6A40080535D4AD3F82034C2F844354FF08053B8
:10B6B400594AD3F82434C2F848354FF08053564AD7
:10B6C400D3F82834C2F84C354FF08053524AD3F89B
:10B6D4002C34C2F850354FF080534F4AD3F83034ED
:10B6E400C2F854354FF080534B4AD3F83434C2F87F
:10B6F40060354FF08053484AD3F83834C2F8643583
:10B704004FF08053444AD3F83C34C2F868354FF0C4
:10B714008053414AD3F84034C2F86C354FF080531B
:10B724003D4AD3F84434C2F87035FFF70BFE0346A4
:10B73400002B05D0394B1B68394A03F04F031360C3
:10B74400FFF744FE0346002B0DD04FF08043D3F89F
:10B75400003403F00103002B05D04FF080436FF059
:10B764000102C3F80024FFF775FE0346002B05D041
:10B774002C4B1B682B4A43F4806313602A4BD3F889
:10B784008830294A43F47003C2F88830BFF34F8FDE
:10B7940000BFBFF36F8F00BFFFF7BCFE4FF0102355
:10B7A400D3F80032002B05DB4FF01023D3F804321A
:10B7B400002B15DA0120FFF7C9FE4FF010231522E4
:10B7C400C3F80022FFF7B6FE4FF010231522C3F88A
:10B7D4000422FFF7AFFE0020FFF7B8FEFFF7BEFB21
:10B7E400FFF7C4FE00BF08BD24030010403501402C
:10B7F40074C007400DF0ADBA440200103C0500408F
:10B80400F0ED00E0A00500401056004088560040CE
:10B81400185600401456004000C000405802001062
:10B82400E40E00403C17004000ED00E000B583B09A
:10B834000190019B1B68184600F011F90346002B88
:10B8440004D105494FF4F67003F0A2FF4FF0A04372
:10B85400184603B05DF804FBEC4F030000B585B057
:10B864000190084611461A4603468DF803300B46EC
:10B874008DF8023013468DF8013001AB1846FFF7FE
:10B88400D5FF03909DF803209DF802305B001A4316
:10B894009DF801309B001A439DF818301B0242EAC0
:10B8A40003019DF81C301B04019A1943039B02F504
:10B8B400E07243F8221000BF05B05DF804FB00B548
:10B8C40085B00390002301930023009300230122F9
:10B8D40001210398FFF7C2FF00BF05B05DF804FB28
:10B8E40000B585B003900B468DF80B309DF80B30F6
:10B8F4000022019200220092002200210398FFF707
:10B90400ADFF00BF05B05DF804FB00B585B0019044
:10B9140001AB1846FFF78AFF0390019B012202FA4C
:10B9240003F31946039800F086F800BF05B05DF8EC
:10B9340004FB00B585B0019001AB1846FFF776FF14
:10B944000390019B012202FA03F31946039800F0C5
:10B954007CF800BF05B05DF804FB00B585B001902C
:10B9640001AB1846FFF762FF0390039BD3F804353D
:10B974000293029BDA43019B012101FA03F31A406B
:10B98400039BC3F80825019B01229A40029B1A409D
:10B99400039BC3F80C2500BF05B05DF804FB00B59C
:10B9A40083B001900091009B002B03D10198FFF715
:10B9B400C0FF02E00198FFF7A8FF00BF03B05DF8E5
:10B9C40004FB00B585B0019001AB1846FFF72EFFCC
:10B9D4000390039800F01FF80246019B22FA03F338
:10B9E40003F00103184605B05DF804FB00B585B00B
:10B9F400019001AB1846FFF719FF0390039800F07C
:10BA040012F80246019B22FA03F303F001031846DD
:10BA140005B05DF804FB82B00190019BD3F81035AA
:10BA2400184602B0704782B00190019BD3F80435E8
:10BA3400184602B0704782B001900091019B009AB1
:10BA4400C3F8082500BF02B0704782B0019000918E
:10BA5400019B009AC3F80C2500BF02B0704784B064
:10BA64000190019B5B09029300230393029B002B2B
:10BA740003D14FF0FF33039300BF019B03F01F0377
:10BA84000193039A019B22FA03F303F00103002BB1
:10BA940014BF01230023DBB2184604B07047000032
:10BAA40000B585B00190019B032B03D911493A20BD
:10BAB40003F06EFE104A019B13441B781846FFF7EF
:10BAC40095FF0346002B14BF012300238DF80F308C
