:020000022000DC
:106000000000012019620200016202000362020026
:10601000056202000762020009620200000000003F
:106020000000000000000000000000000B62020001
:106030000D620200000000000F6202001162020007
:106040001362020013620200136202001362020074
:106050001362020013620200136202001362020064
:106060001362020013620200136202001362020054
:106070001362020013620200136202001362020044
:106080001362020013620200136202001362020034
:1060900013620200136202003D71020013620200EB
:1060A0001362020013620200136202001362020014
:1060B00013620200136202000000000000000000F2
:1060C00013620200136202001362020013620200F4
:1060D000136202001362020013620200000000005B
:1060E00000000000000000000000000000000000B0
:1060F00000000000000000000000000000000000A0
:10610000000000000000000000000000000000008F
:10611000000000000000000000000000000000007F
:10612000000000000000000000000000000000006F
:10613000000000000000000000000000000000005F
:10614000000000000000000000000000000000004F
:10615000000000000000000000000000000000003F
:10616000000000000000000000000000000000002F
:10617000000000000000000000000000000000001F
:10618000000000000000000000000000000000000F
:1061900000000000000000000000000000000000FF
:1061A00000000000000000000000000000000000EF
:1061B00000000000000000000000000000000000DF
:1061C00000000000000000000000000000000000CF
:1061D00000000000000000000000000000000000BF
:1061E00000000000000000000000000000000000AF
:1061F000000000000000000000000000000000009F
:10620000FEE7FEE7FEE7FEE7FEE7FEE7FEE7FEE766
:10621000FEE7FEE700F002B8FFF7FCBF0F484FF0C3
:106220000701884385460E4880470E48016841F4BF
:1062300070010160BFF34F8FBFF36F8F00F01AB88A
:1062400009480A490A4A884207D0521A05D00378F9
:1062500001300B700131013AF9D170470000012083
:10626000016C020088ED00E00C7202006859002009
:10627000685900203A493B480A1A02D00722914344
:106280008D46394939480A1A06D00722914381F3CD
:106290000988022282F3148835483649364A00F0CC
:1062A00041F836483649374A00F03CF83648374915
:1062B000374A00F037F837483749384A00F032F8A3
:1062C00037483849384A00F02DF838483849394AB3
:1062D00000F028F838483949394A00F023F839489D
:1062E0003949002200F036F838483949002200F0D8
:1062F00031F838483849091A00F078FF374A904792
:1063000025482649884205D00268043003B49047E6
:1063100003BCF7E700208646EC4600200021304A07
:106320009047FEE7884214D0521A12D003460B431E
:1063300013430324234206D1036804300B60043165
:10634000043AF9D17047037801300B700131013AFA
:10635000F9D17047884202D002700130FAE77047E5
:106360000000012000E000200000012000000120CA
:1063700028740200685900206C590020E463020070
:10638000E4630200047202002874020068590020CD
:10639000685900200C7202000C7202000C7202009C
:1063A0000C7202000C7202000C7202000C720200ED
:1063B0000C720200287402002C7402006C59002038
:1063C0006C5900206C5900209059002090590020F1
:1063D00090590020905900209079002041620200DD
:0463E000C965020089
:1063E40000B585B00190019B002B0AD0074B43F008
:1063F40001030393019B9B010293039B029898471B
:1064040000E000BF05B05DF804FB00BF407202006D
:1064140000B583B00190019B002B0AD04FF47A7031
:10642400FFF7DEFF019B013B0193019B002BF5D19C
:1064340000E000BF03B05DF804FB000000B583B0CA
:106444000190019B1B68184600F08EF80346002B50
:1064540004D105494FF4F67000F0C2FD4FF0A0439B
:10646400184603B05DF804FB0C72020000B585B059
:106474000190084611461A4603468DF803300B4630
:106484008DF8023013468DF8013001AB1846FFF742
:10649400D5FF03909DF803209DF802305B001A435A
:1064A4009DF801309B001A439DF818301B0242EA04
:1064B40003019DF81C301B04019A1943039B02F548
:1064C400E07243F8221000BF05B05DF804FB00B58C
:1064D40085B003900023019300230093002301223D
:1064E40001210398FFF7C2FF00BF05B05DF804FB6C
:1064F40000B585B0019001AB1846FFF79FFF0390EC
:10650400019B012202FA03F31946039800F018F8DC
:1065140000BF05B05DF804FB00B585B0019001AB88
:106524001846FFF78BFF0390019B012202FA03F345
:106534001946039800F00EF800BF05B05DF804FB9F
:1065440082B001900091019B009AC3F8082500BF16
:1065540002B0704782B001900091019B009AC3F889
:106564000C2500BF02B0704784B00190019B5B0909
:10657400029300230393029B002B03D14FF0FF33BC
:10658400039300BF019B03F01F030193039A019B34
:1065940022FA03F303F00103002B14BF01230023A9
:1065A400DBB2184604B0704708B51C20FFF7A0FF03
:1065B4006420FFF72DFF1C20FFF7AEFF6420FFF7D8
:1065C40027FFF2E708B51C20FFF781FFFFF7ECFF78
:1065D4000023184608BD0000BFF34F8F00BF064BD1
:1065E400DB6803F4E0620449044B1343CB60BFF35C
:1065F4004F8F00BF00BFFDE700ED00E00400FA0587
:1066040082B01D4B1B68B3F1FF3F0AD11B4B1B68C3
:10661400DBB201931A4B1B681B0903F00F030093B1
:1066240005E0154B1B680193164B1B680093019BF7
:10663400062B1DD1009B033B042B17D801A252F853
:1066440023F000BF5D660200616602006566020019
:10665400696602006D66020001230AE0012308E076
:10666400012306E0012304E0012302E0012300E00A
:106674000023184602B0704730010010E00F00F00C
:10668400E80F00F03401001082B0174B1B68DBB236
:106694000193164B1B681B0903F00F030093019B26
:1066A400062B1DD1009B033B042B17D801A252F8E3
:1066B40023F000BFCD660200D1660200D566020059
:1066C400D9660200DD66020001230AE0002308E027
:1066D400002306E0002304E0002302E0002300E09E
:1066E4000023184602B07047E00F00F0E80F00F0F6
:1066F40082B01D4B1B68B3F1FF3F0AD11B4B1B68D3
:10670400DBB201931A4B1B681B0903F00F030093C0
:1067140005E0154B1B680193164B1B680093019B06
:10672400062B1DD1009B033B042B17D801A252F862
:1067340023F000BF4D670200516702005567020055
:10674400596702005D67020001230AE0012308E0A3
:10675400012306E0012304E0012302E0012300E019
:106764000023184602B0704730010010E00F00F01B
:10677400E80F00F03401001082B0174B1B68DBB245
:106784000193164B1B681B0903F00F030093019B35
:10679400062B1DD1009B033B042B17D801A252F8F2
:1067A40023F000BFBD670200C1670200C567020095
:1067B400C9670200CD67020001230AE0002308E054
:1067C400002306E0002304E0002302E0002300E0AD
:1067D4000023184602B07047E00F00F0E80F00F005
:1067E40082B01D4B1B68B3F1FF3F0AD11B4B1B68E2
:1067F400DBB201931A4B1B681B0903F00F030093D0
:1068040005E0154B1B680193164B1B680093019B15
:10681400062B1DD1009B033B042B17D801A252F871
:1068240023F000BF3D680200416802004568020091
:10683400496802004D68020001230AE0012308E0D0
:10684400012306E0012304E0012302E0012300E028
:106854000023184602B0704730010010E00F00F02A
:10686400E80F00F03401001082B0174B1B68DBB254
:106874000193164B1B681B0903F00F030093019B44
:10688400062B1DD1009B033B042B17D801A252F801
:1068940023F000BFAD680200B1680200B5680200D1
:1068A400B9680200BD68020001230AE0002308E081
:1068B400002306E0002304E0002302E0002300E0BC
:1068C4000023184602B07047E00F00F0E80F00F014
:1068D40082B0174B1B68DBB20193164B1B681B0974
:1068E40003F00F030093019B062B1DD1009B033B78
:1068F400042B17D801A252F823F000BF1569020037
:10690400196902001D69020021690200256902005B
:1069140001230AE0002308E0002306E0002304E04A
:10692400002302E0002300E00023184602B0704771
:10693400E00F00F0E80F00F082B01D4B1B68B3F1CC
:10694400FF3F0AD11B4B1B68DBB201931A4B1B6838
:106954001B0903F00F03009305E0154B1B6801931B
:10696400164B1B680093019B062B1DD1009B033B18
:10697400042B17D801A252F823F000BF9569020036
:10698400996902009D690200A1690200A5690200DB
:1069940000230AE0002308E0012306E0012304E0C9
:1069A400012302E0012300E00023184602B07047EF
:1069B40030010010E00F00F0E80F00F03401001087
:1069C40082B01D4B1B68B3F1FF3F0AD11B4B1B6800
:1069D400DBB201931A4B1B681B0903F00F030093EE
:1069E40005E0154B1B680193164B1B680093019B34
:1069F400062B1DD1009B033B042B17D801A252F890
:106A040023F000BF1D6A0200216A0200256A020009
:106A1400296A02002D6A020001230AE0012308E02A
:106A2400012306E0012304E0012302E0012300E046
:106A34000023184602B0704730010010E00F00F048
:106A4400E80F00F03401001082B01D4B1B68B3F155
:106A5400FF3F0AD11B4B1B68DBB201931A4B1B6827
:106A64001B0903F00F03009305E0154B1B6801930A
:106A7400164B1B680093019B062B1DD1009B033B07
:106A8400042B17D801A252F823F000BFA56A020014
:106A9400A96A0200AD6A0200B16A0200B56A020086
:106AA40001230AE0012308E0012306E0012304E0B6
:106AB400012302E0012300E00023184602B07047DE
:106AC40030010010E00F00F0E80F00F03401001076
:106AD40082B0154B1B680193144B1B680093019BF8
:106AE400062B1DD1009B033B042B17D801A252F89F
:106AF40023F000BF0D6B0200116B0200156B020046
:106B0400196B02001D6B020000230AE0002308E059
:106B1400002306E0012304E0012302E0012300E056
:106B24000023184602B070473001001034010010F1
:106B340082B0154B1B680193144B1B680093019B97
:106B4400062B1DD1009B033B042B17D801A252F83E
:106B540023F000BF6D6B0200716B0200756B0200C5
:106B6400796B02007D6B020000230AE0002308E039
:106B7400002306E0002304E0012302E0012300E0F7
:106B84000023184602B07047300100103401001091
:106B940008B5FFF7CDFF0346002B07D04FF01023B5
:106BA4004FF08042D3F80832C2F8583500BF08BD10
:106BB40000BF044BD3F80034002BFAD000BF00BF51
:106BC400704700BF00E0014000B583B00190054A62
:106BD400019BC2F80435FFF7EBFF00BF03B05DF87B
:106BE40004FB00BF00E00140024B034A1A6000BFEF
:106BF400704700BF685900200090D00308B5FFF724
:106C0400FFFC0346002B06D0964B1B681B0A964AD2
:106C140003F01F031360FFF737FD0346002B02D078
:106C2400924B934A1A60FFF763FD0346002B06D08C
:106C3400904B1B685B0B904A03F007031360FFF74C
:106C44009BFD0346002B05D08C4BDB688B4A23F05D
:106C54008073D360FFF7C4FD0346002B0ED04FF0C2
:106C640080430022C3F80C214FF080430022C3F874
:106C740010214FF080430022C3F83825FFF7F4FDBC
:106C84000346002B02D07E4B03221A60FFF720FE3E
:106C94000346002B0BD07B4B05221A607A4B012252
:106CA4001A607A4B00221A60794B3F221A60FFF770
:106CB40043FE0346002B76D04FF08053754AD3F839
:106CC4000434C2F820354FF08053724AD3F80834A4
:106CD400C2F824354FF080536E4AD3F80C34C2F80E
:106CE40028354FF080536B4AD3F81034C2F82C3552
:106CF4004FF08053674AD3F81434C2F830354FF05C
:106D04008053644AD3F81834C2F834354FF08053B2
:106D1400604AD3F81C34C2F840354FF080535D4AC2
:106D2400D3F82034C2F844354FF08053594AD3F88D
:106D34002434C2F848354FF08053564AD3F82834E7
:106D4400C2F84C354FF08053524AD3F82C34C2F871
:106D540050354FF080534F4AD3F83034C2F854358D
:106D64004FF080534B4AD3F83434C2F860354FF0B7
:106D74008053484AD3F83834C2F864354FF080530E
:106D8400444AD3F83C34C2F868354FF08053414A42
:106D9400D3F84034C2F86C354FF080533D4AD3F8F1
:106DA4004434C2F87035FFF70BFE0346002B05D0C0
:106DB400394B1B68394A03F04F031360FFF744FE55
:106DC4000346002B0DD04FF08043D3F8003403F07A
:106DD4000103002B05D04FF080436FF00102C3F88C
:106DE4000024FFF775FE0346002B05D02C4B1B68CF
:106DF4002B4A43F4806313602A4BD3F88830294A22
:106E040043F47003C2F88830BFF34F8F00BFBFF361
:106E14006F8F00BFFFF7BCFE4FF01023D3F8003292
:106E2400002B05DB4FF01023D3F80432002B15DAC6
:106E34000120FFF7C9FE4FF010231522C3F80022EA
:106E4400FFF7B6FE4FF010231522C3F80422FFF714
:106E5400AFFE0020FFF7B8FEFFF7BEFBFFF7C4FE4E
:106E640000BF08BD240300104035014074C0074032
:106E74000DF0ADBA440200103C050040F0ED00E016
:106E8400A0050040105600408856004018560040A7
:106E94001456004000C0004058020010E40E0040A8
:106EA4003C17004000ED00E086B00390029101928F
:106EB40001238DF817309DF81730204A039B136087
:106EC4001E4A029B53601D4A019B9360039B44F23C
:106ED4000102934212D0039B44F20202934220D156
:106EE400019B164AD360154BDB681B68134A9361F8
:106EF400124BDB685B68114AD36112E0019B0F4AB5
:106F040013610E4B1B699B680C4A53610B4B1B6945
:106F14001B680A4A9361094B1B695B68074AD36182
:106F240000BF72B600BF00BF9DF81730DBB2002B64
:106F3400FAD162B600BF00BF06B070476C5900209A
:106F440000B583B002900091019244F201007146B1
:106F54006A4600F003F803B000BD00BF00B587B077
:106F640003900291019272B600BF039B44F20202A5
:106F7400934217D0039B44F20202934218D8039B16
:106F840044F20102934210D0039B44F20102934263
:106F94000ED8039B012B0DD0039B41F201029342B7
:106FA4000AD005E0019B059307E0019B049304E0EC
:106FB40000BF02E000BF00E000BF084B1B6803F005
:106FC4000103002B00D000BE019A02990398FFF739
:106FD4006BFF00BF07B05DF804FB00BFF0ED00E0FD
:106FE40000B585B003460091ADF80630BDF8063013
:106FF4000293009B039302AB1A46002144F2020061
:10700400FFF7ACFF00BF05B05DF804FB00B583B02B
:1070140001900091019B002B03D110495020FFF7F0
:10702400DFFF009B002B03D10C495120FFF7D8FF51
:10703400019B009A1A60019B1B681A68019B5A60A5
:10704400019B5A68019B1B685B689A4202D1019BB1
:1070540000225A6000BF03B05DF804FB48720200CE
:1070640000B583B00190019B002B03D11449632028
:10707400FFF7B6FF019B1B68002B03D11049642066
:10708400FFF7AEFF019B5B68002B14D0019B5B688C
:107094001A46019B1B689B6813441A46019B5A605D
:1070A400019B5A68019B1B685B689A4204D1019B4F
:1070B40000225A6000E000BF03B05DF804FB00BF8B
:1070C4004872020000B583B00190019B002B03D1EC
:1070D4000449C420FFF784FF019B5B68184603B092
:1070E4005DF804FBB872020000B585B06B46114927
:1070F4001846FFF78BFF10E06B461846FFF7E2FFD8
:107104000390039B1B680293039B5A68029B1046DF
:1071140098476B461846FFF7A3FF6B461846FFF7E0
:10712400D1FF0346002BE7D100BF00BF05B05DF8D7
:1071340004FB00BF6473020008B5FFF7D5FF00BF6E
:1071440008BD000000B583B00190019B002B03D162
:107154000449C420FFF744FF019B5B68184603B051
:107164005DF804FB707302004BDF704700BF1846E4
:1071740000B589B0019004AB1846FFF7F5FF0790FE
:10718400079B002B03D0079B052B20D124E002ABE7
:1071940013491846FFF73AFF11E002AB1846FFF710
:1071A400D1FF0690069B1B680593049A069B5968B9
:1071B400059B1046984702AB1846FFF751FF02ABF8
:1071C4001846FFF7BFFF0346002BE6D1D3E7054A75
:1071D4006B210798FFF7B4FE00BF09B05DF804FB0C
:1071E4001C740200C4730200082938BF70470022CF
:1071F400C0E9002145F68C11C2F200010860704715
:0872040075710200000000009A
:10720C002E2E2F2E2E2F2E2E2F2E2E2F2E2E2F2E8D
:10721C002E2F6D6F64756C65732F6E7266782F6888
:10722C00616C2F6E72665F6770696F2E680000006C
:10723C00000000000338FDD870470000433A5C6E34
:10724C0072665F73646B5C6E7266666673646B5CAD
:10725C006E5246355F53444B5F31372E312E305FC3
:10726C00646464653536305C636F6D706F6E656E2B
:10727C0074735C6C69627261726965735C65787059
:10728C006572696D656E74616C5F73656374696F4B
:10729C006E5F766172735C6E72665F736563746940
:1072AC006F6E5F697465722E630000002E2E2F2E98
:1072BC002E2F2E2E2F2E2E2F2E2E2F2E2E2F636F67
:1072CC006D706F6E656E74732F6C6962726172692A
:1072DC0065732F6578706572696D656E74616C5F2E
:1072EC0073656374696F6E5F766172732F6E72660D
:1072FC005F73656374696F6E5F697465722E680085
:10730C00433A5C6E72665F73646B5C6E7266666643
:10731C0073646B5C6E5246355F53444B5F31372E52
:10732C00312E305F646464653536305C636F6D702C
:10733C006F6E656E74735C736F6674646576696387
:10734C00655C636F6D6D6F6E5C6E72665F736468A7
:10735C002E63000001000007047202000C72020090
:10736C00080000002E2E2F2E2E2F2E2E2F2E2E2FDD
:10737C002E2E2F2E2E2F636F6D706F6E656E7473A5
:10738C002F6C69627261726965732F6578706572B2
:10739C00696D656E74616C5F73656374696F6E5F44
:1073AC00766172732F6E72665F73656374696F6E4C
:1073BC005F697465722E6800433A5C6E72665F7327
:1073CC00646B5C6E7266666673646B5C6E5246359B
:1073DC005F53444B5F31372E312E305F64646465EC
:1073EC003536305C636F6D706F6E656E74735C7385
:1073FC006F66746465766963655C636F6D6D6F6EE3
:10740C005C6E72665F7364685F736F632E630000FB
:0C741C000472020004720200080000006C
:047428000090D003FD
:04000003200062195E
:00000001FF
